No.     Time        Source                Destination           Protocol Info
     71 2.324871    192.168.1.2           192.168.1.102         UDP      Source port: 59644  Destination port: isigate

Frame 71 (189 bytes on wire, 189 bytes captured)
    Arrival Time: May 28, 2010 20:47:54.831597000
    [Time delta from previous captured frame: 0.243138000 seconds]
    [Time delta from previous displayed frame: 2.324871000 seconds]
    [Time since reference or first frame: 2.324871000 seconds]
    Frame Number: 71
    Frame Length: 189 bytes
    Capture Length: 189 bytes
    [Frame is marked: False]
    [Protocols in frame: eth:ip:udp:data]
    [Coloring Rule Name: UDP]
    [Coloring Rule String: udp]
Ethernet II, Src: Motorola_53:5c:b7 (00:26:ba:53:5c:b7), Dst: Cisco-Li_76:1b:c6 (00:25:9c:76:1b:c6)
    Destination: Cisco-Li_76:1b:c6 (00:25:9c:76:1b:c6)
        Address: Cisco-Li_76:1b:c6 (00:25:9c:76:1b:c6)
        .... ...0 .... .... .... .... = IG bit: Individual address (unicast)
        .... ..0. .... .... .... .... = LG bit: Globally unique address (factory default)
    Source: Motorola_53:5c:b7 (00:26:ba:53:5c:b7)
        Address: Motorola_53:5c:b7 (00:26:ba:53:5c:b7)
        .... ...0 .... .... .... .... = IG bit: Individual address (unicast)
        .... ..0. .... .... .... .... = LG bit: Globally unique address (factory default)
    Type: IP (0x0800)
Internet Protocol, Src: 192.168.1.2 (192.168.1.2), Dst: 192.168.1.102 (192.168.1.102)
    Version: 4
    Header length: 20 bytes
    Differentiated Services Field: 0x00 (DSCP 0x00: Default; ECN: 0x00)
        0000 00.. = Differentiated Services Codepoint: Default (0x00)
        .... ..0. = ECN-Capable Transport (ECT): 0
        .... ...0 = ECN-CE: 0
    Total Length: 175
    Identification: 0x0000 (0)
    Flags: 0x02 (Don't Fragment)
        0.. = Reserved bit: Not Set
        .1. = Don't fragment: Set
        ..0 = More fragments: Not Set
    Fragment offset: 0
    Time to live: 64
    Protocol: UDP (0x11)
    Header checksum: 0xb685 [correct]
        [Good: True]
        [Bad : False]
    Source: 192.168.1.2 (192.168.1.2)
    Destination: 192.168.1.102 (192.168.1.102)
User Datagram Protocol, Src Port: 59644 (59644), Dst Port: isigate (4538)
    Source port: 59644 (59644)
    Destination port: isigate (4538)
    Length: 155
    Checksum: 0x6939 [validation disabled]
        [Good Checksum: False]
        [Bad Checksum: False]
Data (147 bytes)
    Data: 560202020001000014300900000000000000000000000000...
    [Length: 147]

0000  00 25 9c 76 1b c6 00 26 ba 53 5c b7 08 00 45 00   .%.v...&.S\...E.
0010  00 af 00 00 40 00 40 11 b6 85 c0 a8 01 02 c0 a8   ....@.@.........
0020  01 66 e8 fc 11 ba 00 9b 69 39 56 02 02 02 00 01   .f......i9V.....
0030  00 00 14 30 09 00 00 00 00 00 00 00 00 00 00 00   ...0............
0040  00 00 00 00 00 00 00 00 00 00 00 00 00 00 00 00   ................
0050  00 00 00 00 00 00 00 00 00 00 00 00 00 00 00 00   ................
0060  00 00 00 00 00 00 00 00 82 00 00 00 00 00 00 4d   ...............M
0070  12 00 01 02 04 00 01 01 05 00 01 00 06 00 04 00   ................
0080  00 00 13 07 00 20 df a5 11 0e 6f b9 fb 3f 79 69   ..... ....o..?yi
0090  ce 18 1b 0f fe 99 c7 2d e0 47 00 00 00 00 00 00   .......-.G......
00a0  00 00 00 00 00 00 08 00 06 00 00 00 00 00 00 09   ................
00b0  00 02 11 b4 0a 00 01 01 01 00 02 53 52            ...........SR

No.     Time        Source                Destination           Protocol Info
     72 2.324912    192.168.1.5           192.168.1.2           ICMP     Redirect (Redirect for host)

Frame 72 (217 bytes on wire, 217 bytes captured)
    Arrival Time: May 28, 2010 20:47:54.831638000
    [Time delta from previous captured frame: 0.000041000 seconds]
    [Time delta from previous displayed frame: 0.000041000 seconds]
    [Time since reference or first frame: 2.324912000 seconds]
    Frame Number: 72
    Frame Length: 217 bytes
    Capture Length: 217 bytes
    [Frame is marked: False]
    [Protocols in frame: eth:ip:icmp:ip:udp:data]
    [Coloring Rule Name: ICMP errors]
    [Coloring Rule String: icmp.type eq 3 || icmp.type eq 4 || icmp.type eq 5 || icmp.type eq 11]
Ethernet II, Src: Cisco-Li_76:1b:c6 (00:25:9c:76:1b:c6), Dst: Motorola_53:5c:b7 (00:26:ba:53:5c:b7)
    Destination: Motorola_53:5c:b7 (00:26:ba:53:5c:b7)
        Address: Motorola_53:5c:b7 (00:26:ba:53:5c:b7)
        .... ...0 .... .... .... .... = IG bit: Individual address (unicast)
        .... ..0. .... .... .... .... = LG bit: Globally unique address (factory default)
    Source: Cisco-Li_76:1b:c6 (00:25:9c:76:1b:c6)
        Address: Cisco-Li_76:1b:c6 (00:25:9c:76:1b:c6)
        .... ...0 .... .... .... .... = IG bit: Individual address (unicast)
        .... ..0. .... .... .... .... = LG bit: Globally unique address (factory default)
    Type: IP (0x0800)
Internet Protocol, Src: 192.168.1.5 (192.168.1.5), Dst: 192.168.1.2 (192.168.1.2)
    Version: 4
    Header length: 20 bytes
    Differentiated Services Field: 0xc0 (DSCP 0x30: Class Selector 6; ECN: 0x00)
        1100 00.. = Differentiated Services Codepoint: Class Selector 6 (0x30)
        .... ..0. = ECN-Capable Transport (ECT): 0
        .... ...0 = ECN-CE: 0
    Total Length: 203
    Identification: 0x9cc3 (40131)
    Flags: 0x00
        0.. = Reserved bit: Not Set
        .0. = Don't fragment: Not Set
        ..0 = More fragments: Not Set
    Fragment offset: 0
    Time to live: 64
    Protocol: ICMP (0x01)
    Header checksum: 0x5957 [correct]
        [Good: True]
        [Bad : False]
    Source: 192.168.1.5 (192.168.1.5)
    Destination: 192.168.1.2 (192.168.1.2)
Internet Control Message Protocol
    Type: 5 (Redirect)
    Code: 1 (Redirect for host)
    Checksum: 0xbd55 [correct]
    Gateway address: 192.168.1.102 (192.168.1.102)
    Internet Protocol, Src: 192.168.1.2 (192.168.1.2), Dst: 192.168.1.102 (192.168.1.102)
        Version: 4
        Header length: 20 bytes
        Differentiated Services Field: 0x00 (DSCP 0x00: Default; ECN: 0x00)
            0000 00.. = Differentiated Services Codepoint: Default (0x00)
            .... ..0. = ECN-Capable Transport (ECT): 0
            .... ...0 = ECN-CE: 0
        Total Length: 175
        Identification: 0x0000 (0)
        Flags: 0x02 (Don't Fragment)
            0.. = Reserved bit: Not Set
            .1. = Don't fragment: Set
            ..0 = More fragments: Not Set
        Fragment offset: 0
        Time to live: 63
        Protocol: UDP (0x11)
        Header checksum: 0xb785 [correct]
            [Good: True]
            [Bad : False]
        Source: 192.168.1.2 (192.168.1.2)
        Destination: 192.168.1.102 (192.168.1.102)
    User Datagram Protocol, Src Port: 59644 (59644), Dst Port: isigate (4538)
        Source port: 59644 (59644)
        Destination port: isigate (4538)
        Length: 155
        Checksum: 0x6939 [validation disabled]
            [Good Checksum: False]
            [Bad Checksum: False]
    Data (147 bytes)
        Data: 560202020001000014300900000000000000000000000000...
        [Length: 147]

0000  00 26 ba 53 5c b7 00 25 9c 76 1b c6 08 00 45 c0   .&.S\..%.v....E.
0010  00 cb 9c c3 00 00 40 01 59 57 c0 a8 01 05 c0 a8   ......@.YW......
0020  01 02 05 01 bd 55 c0 a8 01 66 45 00 00 af 00 00   .....U...fE.....
0030  40 00 3f 11 b7 85 c0 a8 01 02 c0 a8 01 66 e8 fc   @.?..........f..
0040  11 ba 00 9b 69 39 56 02 02 02 00 01 00 00 14 30   ....i9V........0
0050  09 00 00 00 00 00 00 00 00 00 00 00 00 00 00 00   ................
0060  00 00 00 00 00 00 00 00 00 00 00 00 00 00 00 00   ................
0070  00 00 00 00 00 00 00 00 00 00 00 00 00 00 00 00   ................
0080  00 00 00 00 82 00 00 00 00 00 00 4d 12 00 01 02   ...........M....
0090  04 00 01 01 05 00 01 00 06 00 04 00 00 00 13 07   ................
00a0  00 20 df a5 11 0e 6f b9 fb 3f 79 69 ce 18 1b 0f   . ....o..?yi....
00b0  fe 99 c7 2d e0 47 00 00 00 00 00 00 00 00 00 00   ...-.G..........
00c0  00 00 08 00 06 00 00 00 00 00 00 09 00 02 11 b4   ................
00d0  0a 00 01 01 01 00 02 53 52                        .......SR

No.     Time        Source                Destination           Protocol Info
     73 2.324932    192.168.1.2           192.168.1.102         UDP      Source port: 59644  Destination port: isigate

Frame 73 (189 bytes on wire, 189 bytes captured)
    Arrival Time: May 28, 2010 20:47:54.831658000
    [Time delta from previous captured frame: 0.000020000 seconds]
    [Time delta from previous displayed frame: 0.000020000 seconds]
    [Time since reference or first frame: 2.324932000 seconds]
    Frame Number: 73
    Frame Length: 189 bytes
    Capture Length: 189 bytes
    [Frame is marked: False]
    [Protocols in frame: eth:ip:udp:data]
    [Coloring Rule Name: UDP]
    [Coloring Rule String: udp]
Ethernet II, Src: Cisco-Li_76:1b:c6 (00:25:9c:76:1b:c6), Dst: Motorola_87:62:49 (00:23:ed:87:62:49)
    Destination: Motorola_87:62:49 (00:23:ed:87:62:49)
        Address: Motorola_87:62:49 (00:23:ed:87:62:49)
        .... ...0 .... .... .... .... = IG bit: Individual address (unicast)
        .... ..0. .... .... .... .... = LG bit: Globally unique address (factory default)
    Source: Cisco-Li_76:1b:c6 (00:25:9c:76:1b:c6)
        Address: Cisco-Li_76:1b:c6 (00:25:9c:76:1b:c6)
        .... ...0 .... .... .... .... = IG bit: Individual address (unicast)
        .... ..0. .... .... .... .... = LG bit: Globally unique address (factory default)
    Type: IP (0x0800)
Internet Protocol, Src: 192.168.1.2 (192.168.1.2), Dst: 192.168.1.102 (192.168.1.102)
    Version: 4
    Header length: 20 bytes
    Differentiated Services Field: 0x00 (DSCP 0x00: Default; ECN: 0x00)
        0000 00.. = Differentiated Services Codepoint: Default (0x00)
        .... ..0. = ECN-Capable Transport (ECT): 0
        .... ...0 = ECN-CE: 0
    Total Length: 175
    Identification: 0x0000 (0)
    Flags: 0x02 (Don't Fragment)
        0.. = Reserved bit: Not Set
        .1. = Don't fragment: Set
        ..0 = More fragments: Not Set
    Fragment offset: 0
    Time to live: 63
    Protocol: UDP (0x11)
    Header checksum: 0xb785 [correct]
        [Good: True]
        [Bad : False]
    Source: 192.168.1.2 (192.168.1.2)
    Destination: 192.168.1.102 (192.168.1.102)
User Datagram Protocol, Src Port: 59644 (59644), Dst Port: isigate (4538)
    Source port: 59644 (59644)
    Destination port: isigate (4538)
    Length: 155
    Checksum: 0x6939 [validation disabled]
        [Good Checksum: False]
        [Bad Checksum: False]
Data (147 bytes)
    Data: 560202020001000014300900000000000000000000000000...
    [Length: 147]

0000  00 23 ed 87 62 49 00 25 9c 76 1b c6 08 00 45 00   .#..bI.%.v....E.
0010  00 af 00 00 40 00 3f 11 b7 85 c0 a8 01 02 c0 a8   ....@.?.........
0020  01 66 e8 fc 11 ba 00 9b 69 39 56 02 02 02 00 01   .f......i9V.....
0030  00 00 14 30 09 00 00 00 00 00 00 00 00 00 00 00   ...0............
0040  00 00 00 00 00 00 00 00 00 00 00 00 00 00 00 00   ................
0050  00 00 00 00 00 00 00 00 00 00 00 00 00 00 00 00   ................
0060  00 00 00 00 00 00 00 00 82 00 00 00 00 00 00 4d   ...............M
0070  12 00 01 02 04 00 01 01 05 00 01 00 06 00 04 00   ................
0080  00 00 13 07 00 20 df a5 11 0e 6f b9 fb 3f 79 69   ..... ....o..?yi
0090  ce 18 1b 0f fe 99 c7 2d e0 47 00 00 00 00 00 00   .......-.G......
00a0  00 00 00 00 00 00 08 00 06 00 00 00 00 00 00 09   ................
00b0  00 02 11 b4 0a 00 01 01 01 00 02 53 52            ...........SR

No.     Time        Source                Destination           Protocol Info
     74 2.331464    192.168.1.102         192.168.1.2           TCP      35914 > 4532 [SYN] Seq=0 Win=18824 Len=0 MSS=1460 WS=0 TSV=121593200 TSER=0

Frame 74 (78 bytes on wire, 78 bytes captured)
    Arrival Time: May 28, 2010 20:47:54.838190000
    [Time delta from previous captured frame: 0.006532000 seconds]
    [Time delta from previous displayed frame: 0.006532000 seconds]
    [Time since reference or first frame: 2.331464000 seconds]
    Frame Number: 74
    Frame Length: 78 bytes
    Capture Length: 78 bytes
    [Frame is marked: False]
    [Protocols in frame: eth:ip:tcp]
    [Coloring Rule Name: TCP SYN/FIN]
    [Coloring Rule String: tcp.flags & 0x02 || tcp.flags.fin == 1]
Ethernet II, Src: Motorola_87:62:49 (00:23:ed:87:62:49), Dst: Cisco-Li_76:1b:c6 (00:25:9c:76:1b:c6)
    Destination: Cisco-Li_76:1b:c6 (00:25:9c:76:1b:c6)
        Address: Cisco-Li_76:1b:c6 (00:25:9c:76:1b:c6)
        .... ...0 .... .... .... .... = IG bit: Individual address (unicast)
        .... ..0. .... .... .... .... = LG bit: Globally unique address (factory default)
    Source: Motorola_87:62:49 (00:23:ed:87:62:49)
        Address: Motorola_87:62:49 (00:23:ed:87:62:49)
        .... ...0 .... .... .... .... = IG bit: Individual address (unicast)
        .... ..0. .... .... .... .... = LG bit: Globally unique address (factory default)
    Type: IP (0x0800)
Internet Protocol, Src: 192.168.1.102 (192.168.1.102), Dst: 192.168.1.2 (192.168.1.2)
    Version: 4
    Header length: 20 bytes
    Differentiated Services Field: 0x00 (DSCP 0x00: Default; ECN: 0x00)
        0000 00.. = Differentiated Services Codepoint: Default (0x00)
        .... ..0. = ECN-Capable Transport (ECT): 0
        .... ...0 = ECN-CE: 0
    Total Length: 64
    Identification: 0x0001 (1)
    Flags: 0x00
        0.. = Reserved bit: Not Set
        .0. = Don't fragment: Not Set
        ..0 = More fragments: Not Set
    Fragment offset: 0
    Time to live: 64
    Protocol: TCP (0x06)
    Header checksum: 0xf6fe [correct]
        [Good: True]
        [Bad : False]
    Source: 192.168.1.102 (192.168.1.102)
    Destination: 192.168.1.2 (192.168.1.2)
Transmission Control Protocol, Src Port: 35914 (35914), Dst Port: 4532 (4532), Seq: 0, Len: 0
    Source port: 35914 (35914)
    Destination port: 4532 (4532)
    [Stream index: 32]
    Sequence number: 0    (relative sequence number)
    Header length: 44 bytes
    Flags: 0x02 (SYN)
        0... .... = Congestion Window Reduced (CWR): Not set
        .0.. .... = ECN-Echo: Not set
        ..0. .... = Urgent: Not set
        ...0 .... = Acknowledgement: Not set
        .... 0... = Push: Not set
        .... .0.. = Reset: Not set
        .... ..1. = Syn: Set
            [Expert Info (Chat/Sequence): Connection establish request (SYN): server port 4532]
                [Message: Connection establish request (SYN): server port 4532]
                [Severity level: Chat]
                [Group: Sequence]
        .... ...0 = Fin: Not set
    Window size: 18824
    Checksum: 0x8c61 [validation disabled]
        [Good Checksum: False]
        [Bad Checksum: False]
    Options: (24 bytes)
        Maximum segment size: 1460 bytes
        NOP
        Window scale: 0 (multiply by 1)
        NOP
        NOP
        SACK permitted
        NOP
        NOP
        Timestamps: TSval 121593200, TSecr 0

0000  00 25 9c 76 1b c6 00 23 ed 87 62 49 08 00 45 00   .%.v...#..bI..E.
0010  00 40 00 01 00 00 40 06 f6 fe c0 a8 01 66 c0 a8   .@....@......f..
0020  01 02 8c 4a 11 b4 d5 af 04 01 00 00 00 00 b0 02   ...J............
0030  49 88 8c 61 00 00 02 04 05 b4 01 03 03 00 01 01   I..a............
0040  04 02 01 01 08 0a 07 3f 5d 70 00 00 00 00         .......?]p....

No.     Time        Source                Destination           Protocol Info
     75 2.331478    192.168.1.5           192.168.1.102         ICMP     Redirect (Redirect for host)

Frame 75 (106 bytes on wire, 106 bytes captured)
    Arrival Time: May 28, 2010 20:47:54.838204000
    [Time delta from previous captured frame: 0.000014000 seconds]
    [Time delta from previous displayed frame: 0.000014000 seconds]
    [Time since reference or first frame: 2.331478000 seconds]
    Frame Number: 75
    Frame Length: 106 bytes
    Capture Length: 106 bytes
    [Frame is marked: False]
    [Protocols in frame: eth:ip:icmp:ip:tcp]
    [Coloring Rule Name: ICMP errors]
    [Coloring Rule String: icmp.type eq 3 || icmp.type eq 4 || icmp.type eq 5 || icmp.type eq 11]
Ethernet II, Src: Cisco-Li_76:1b:c6 (00:25:9c:76:1b:c6), Dst: Motorola_87:62:49 (00:23:ed:87:62:49)
    Destination: Motorola_87:62:49 (00:23:ed:87:62:49)
        Address: Motorola_87:62:49 (00:23:ed:87:62:49)
        .... ...0 .... .... .... .... = IG bit: Individual address (unicast)
        .... ..0. .... .... .... .... = LG bit: Globally unique address (factory default)
    Source: Cisco-Li_76:1b:c6 (00:25:9c:76:1b:c6)
        Address: Cisco-Li_76:1b:c6 (00:25:9c:76:1b:c6)
        .... ...0 .... .... .... .... = IG bit: Individual address (unicast)
        .... ..0. .... .... .... .... = LG bit: Globally unique address (factory default)
    Type: IP (0x0800)
Internet Protocol, Src: 192.168.1.5 (192.168.1.5), Dst: 192.168.1.102 (192.168.1.102)
    Version: 4
    Header length: 20 bytes
    Differentiated Services Field: 0xc0 (DSCP 0x30: Class Selector 6; ECN: 0x00)
        1100 00.. = Differentiated Services Codepoint: Class Selector 6 (0x30)
        .... ..0. = ECN-Capable Transport (ECT): 0
        .... ...0 = ECN-CE: 0
    Total Length: 92
    Identification: 0xa6c1 (42689)
    Flags: 0x00
        0.. = Reserved bit: Not Set
        .0. = Don't fragment: Not Set
        ..0 = More fragments: Not Set
    Fragment offset: 0
    Time to live: 64
    Protocol: ICMP (0x01)
    Header checksum: 0x4f64 [correct]
        [Good: True]
        [Bad : False]
    Source: 192.168.1.5 (192.168.1.5)
    Destination: 192.168.1.102 (192.168.1.102)
Internet Control Message Protocol
    Type: 5 (Redirect)
    Code: 1 (Redirect for host)
    Checksum: 0xbd3f [correct]
    Gateway address: 192.168.1.2 (192.168.1.2)
    Internet Protocol, Src: 192.168.1.102 (192.168.1.102), Dst: 192.168.1.2 (192.168.1.2)
        Version: 4
        Header length: 20 bytes
        Differentiated Services Field: 0x00 (DSCP 0x00: Default; ECN: 0x00)
            0000 00.. = Differentiated Services Codepoint: Default (0x00)
            .... ..0. = ECN-Capable Transport (ECT): 0
            .... ...0 = ECN-CE: 0
        Total Length: 64
        Identification: 0x0001 (1)
        Flags: 0x00
            0.. = Reserved bit: Not Set
            .0. = Don't fragment: Not Set
            ..0 = More fragments: Not Set
        Fragment offset: 0
        Time to live: 63
        Protocol: TCP (0x06)
        Header checksum: 0xf7fe [correct]
            [Good: True]
            [Bad : False]
        Source: 192.168.1.102 (192.168.1.102)
        Destination: 192.168.1.2 (192.168.1.2)
    Transmission Control Protocol, Src Port: 35914 (35914), Dst Port: 4532 (4532), Seq: 3585016833
        Source port: 35914 (35914)
        Destination port: 4532 (4532)
        Sequence number: 3585016833
        [Stream index: 32]
        Sequence number: 3585016833    (relative sequence number)
        Header length: 44 bytes
        Flags: 0x02 (SYN)
            0... .... = Congestion Window Reduced (CWR): Not set
            .0.. .... = ECN-Echo: Not set
            ..0. .... = Urgent: Not set
            ...0 .... = Acknowledgement: Not set
            .... 0... = Push: Not set
            .... .0.. = Reset: Not set
            .... ..1. = Syn: Set
                [Expert Info (Chat/Sequence): Connection establish request (SYN): server port 4532]
                    [Message: Connection establish request (SYN): server port 4532]
                    [Severity level: Chat]
                    [Group: Sequence]
            .... ...0 = Fin: Not set
        Window size: 18824
        Checksum: 0x8c61 [validation disabled]
            [Good Checksum: False]
            [Bad Checksum: False]
        Options: (24 bytes)
            Maximum segment size: 1460 bytes
            NOP
            Window scale: 0 (multiply by 1)
            NOP
            NOP
            SACK permitted
            NOP
            NOP
            Timestamps: TSval 121593200, TSecr 0

0000  00 23 ed 87 62 49 00 25 9c 76 1b c6 08 00 45 c0   .#..bI.%.v....E.
0010  00 5c a6 c1 00 00 40 01 4f 64 c0 a8 01 05 c0 a8   .\....@.Od......
0020  01 66 05 01 bd 3f c0 a8 01 02 45 00 00 40 00 01   .f...?....E..@..
0030  00 00 3f 06 f7 fe c0 a8 01 66 c0 a8 01 02 8c 4a   ..?......f.....J
0040  11 b4 d5 af 04 01 00 00 00 00 b0 02 49 88 8c 61   ............I..a
0050  00 00 02 04 05 b4 01 03 03 00 01 01 04 02 01 01   ................
0060  08 0a 07 3f 5d 70 00 00 00 00                     ...?]p....

No.     Time        Source                Destination           Protocol Info
     76 2.331490    192.168.1.102         192.168.1.2           TCP      35914 > 4532 [SYN] Seq=0 Win=18824 Len=0 MSS=1460 WS=0 TSV=121593200 TSER=0

Frame 76 (78 bytes on wire, 78 bytes captured)
    Arrival Time: May 28, 2010 20:47:54.838216000
    [Time delta from previous captured frame: 0.000012000 seconds]
    [Time delta from previous displayed frame: 0.000012000 seconds]
    [Time since reference or first frame: 2.331490000 seconds]
    Frame Number: 76
    Frame Length: 78 bytes
    Capture Length: 78 bytes
    [Frame is marked: False]
    [Protocols in frame: eth:ip:tcp]
    [Coloring Rule Name: TCP SYN/FIN]
    [Coloring Rule String: tcp.flags & 0x02 || tcp.flags.fin == 1]
Ethernet II, Src: Cisco-Li_76:1b:c6 (00:25:9c:76:1b:c6), Dst: Motorola_53:5c:b7 (00:26:ba:53:5c:b7)
    Destination: Motorola_53:5c:b7 (00:26:ba:53:5c:b7)
        Address: Motorola_53:5c:b7 (00:26:ba:53:5c:b7)
        .... ...0 .... .... .... .... = IG bit: Individual address (unicast)
        .... ..0. .... .... .... .... = LG bit: Globally unique address (factory default)
    Source: Cisco-Li_76:1b:c6 (00:25:9c:76:1b:c6)
        Address: Cisco-Li_76:1b:c6 (00:25:9c:76:1b:c6)
        .... ...0 .... .... .... .... = IG bit: Individual address (unicast)
        .... ..0. .... .... .... .... = LG bit: Globally unique address (factory default)
    Type: IP (0x0800)
Internet Protocol, Src: 192.168.1.102 (192.168.1.102), Dst: 192.168.1.2 (192.168.1.2)
    Version: 4
    Header length: 20 bytes
    Differentiated Services Field: 0x00 (DSCP 0x00: Default; ECN: 0x00)
        0000 00.. = Differentiated Services Codepoint: Default (0x00)
        .... ..0. = ECN-Capable Transport (ECT): 0
        .... ...0 = ECN-CE: 0
    Total Length: 64
    Identification: 0x0001 (1)
    Flags: 0x00
        0.. = Reserved bit: Not Set
        .0. = Don't fragment: Not Set
        ..0 = More fragments: Not Set
    Fragment offset: 0
    Time to live: 63
    Protocol: TCP (0x06)
    Header checksum: 0xf7fe [correct]
        [Good: True]
        [Bad : False]
    Source: 192.168.1.102 (192.168.1.102)
    Destination: 192.168.1.2 (192.168.1.2)
Transmission Control Protocol, Src Port: 35914 (35914), Dst Port: 4532 (4532), Seq: 0, Len: 0
    Source port: 35914 (35914)
    Destination port: 4532 (4532)
    [Stream index: 32]
    Sequence number: 0    (relative sequence number)
    Header length: 44 bytes
    Flags: 0x02 (SYN)
        0... .... = Congestion Window Reduced (CWR): Not set
        .0.. .... = ECN-Echo: Not set
        ..0. .... = Urgent: Not set
        ...0 .... = Acknowledgement: Not set
        .... 0... = Push: Not set
        .... .0.. = Reset: Not set
        .... ..1. = Syn: Set
            [Expert Info (Chat/Sequence): Connection establish request (SYN): server port 4532]
                [Message: Connection establish request (SYN): server port 4532]
                [Severity level: Chat]
                [Group: Sequence]
        .... ...0 = Fin: Not set
    Window size: 18824
    Checksum: 0x8c61 [validation disabled]
        [Good Checksum: False]
        [Bad Checksum: False]
    Options: (24 bytes)
        Maximum segment size: 1460 bytes
        NOP
        Window scale: 0 (multiply by 1)
        NOP
        NOP
        SACK permitted
        NOP
        NOP
        Timestamps: TSval 121593200, TSecr 0

0000  00 26 ba 53 5c b7 00 25 9c 76 1b c6 08 00 45 00   .&.S\..%.v....E.
0010  00 40 00 01 00 00 3f 06 f7 fe c0 a8 01 66 c0 a8   .@....?......f..
0020  01 02 8c 4a 11 b4 d5 af 04 01 00 00 00 00 b0 02   ...J............
0030  49 88 8c 61 00 00 02 04 05 b4 01 03 03 00 01 01   I..a............
0040  04 02 01 01 08 0a 07 3f 5d 70 00 00 00 00         .......?]p....

No.     Time        Source                Destination           Protocol Info
     77 2.388299    192.168.1.5           192.168.1.2           ICMP     Redirect (Redirect for host)

Frame 77 (217 bytes on wire, 217 bytes captured)
    Arrival Time: May 28, 2010 20:47:54.895025000
    [Time delta from previous captured frame: 0.056809000 seconds]
    [Time delta from previous displayed frame: 0.056809000 seconds]
    [Time since reference or first frame: 2.388299000 seconds]
    Frame Number: 77
    Frame Length: 217 bytes
    Capture Length: 217 bytes
    [Frame is marked: False]
    [Protocols in frame: eth:ip:icmp:ip:udp:data]
    [Coloring Rule Name: ICMP errors]
    [Coloring Rule String: icmp.type eq 3 || icmp.type eq 4 || icmp.type eq 5 || icmp.type eq 11]
Ethernet II, Src: Cisco-Li_76:1b:c6 (00:25:9c:76:1b:c6), Dst: Motorola_53:5c:b7 (00:26:ba:53:5c:b7)
    Destination: Motorola_53:5c:b7 (00:26:ba:53:5c:b7)
        Address: Motorola_53:5c:b7 (00:26:ba:53:5c:b7)
        .... ...0 .... .... .... .... = IG bit: Individual address (unicast)
        .... ..0. .... .... .... .... = LG bit: Globally unique address (factory default)
    Source: Cisco-Li_76:1b:c6 (00:25:9c:76:1b:c6)
        Address: Cisco-Li_76:1b:c6 (00:25:9c:76:1b:c6)
        .... ...0 .... .... .... .... = IG bit: Individual address (unicast)
        .... ..0. .... .... .... .... = LG bit: Globally unique address (factory default)
    Type: IP (0x0800)
Internet Protocol, Src: 192.168.1.5 (192.168.1.5), Dst: 192.168.1.2 (192.168.1.2)
    Version: 4
    Header length: 20 bytes
    Differentiated Services Field: 0xc0 (DSCP 0x30: Class Selector 6; ECN: 0x00)
        1100 00.. = Differentiated Services Codepoint: Class Selector 6 (0x30)
        .... ..0. = ECN-Capable Transport (ECT): 0
        .... ...0 = ECN-CE: 0
    Total Length: 203
    Identification: 0x9cc3 (40131)
    Flags: 0x00
        0.. = Reserved bit: Not Set
        .0. = Don't fragment: Not Set
        ..0 = More fragments: Not Set
    Fragment offset: 0
    Time to live: 64
    Protocol: ICMP (0x01)
    Header checksum: 0x5957 [correct]
        [Good: True]
        [Bad : False]
    Source: 192.168.1.5 (192.168.1.5)
    Destination: 192.168.1.2 (192.168.1.2)
Internet Control Message Protocol
    Type: 5 (Redirect)
    Code: 1 (Redirect for host)
    Checksum: 0xbd55 [correct]
    Gateway address: 192.168.1.102 (192.168.1.102)
    Internet Protocol, Src: 192.168.1.2 (192.168.1.2), Dst: 192.168.1.102 (192.168.1.102)
        Version: 4
        Header length: 20 bytes
        Differentiated Services Field: 0x00 (DSCP 0x00: Default; ECN: 0x00)
            0000 00.. = Differentiated Services Codepoint: Default (0x00)
            .... ..0. = ECN-Capable Transport (ECT): 0
            .... ...0 = ECN-CE: 0
        Total Length: 175
        Identification: 0x0000 (0)
        Flags: 0x02 (Don't Fragment)
            0.. = Reserved bit: Not Set
            .1. = Don't fragment: Set
            ..0 = More fragments: Not Set
        Fragment offset: 0
        Time to live: 63
        Protocol: UDP (0x11)
        Header checksum: 0xb785 [correct]
            [Good: True]
            [Bad : False]
        Source: 192.168.1.2 (192.168.1.2)
        Destination: 192.168.1.102 (192.168.1.102)
    User Datagram Protocol, Src Port: 59644 (59644), Dst Port: isigate (4538)
        Source port: 59644 (59644)
        Destination port: isigate (4538)
        Length: 155
        Checksum: 0x6939 [validation disabled]
            [Good Checksum: False]
            [Bad Checksum: False]
    Data (147 bytes)
        Data: 560202020001000014300900000000000000000000000000...
        [Length: 147]

0000  00 26 ba 53 5c b7 00 25 9c 76 1b c6 08 00 45 c0   .&.S\..%.v....E.
0010  00 cb 9c c3 00 00 40 01 59 57 c0 a8 01 05 c0 a8   ......@.YW......
0020  01 02 05 01 bd 55 c0 a8 01 66 45 00 00 af 00 00   .....U...fE.....
0030  40 00 3f 11 b7 85 c0 a8 01 02 c0 a8 01 66 e8 fc   @.?..........f..
0040  11 ba 00 9b 69 39 56 02 02 02 00 01 00 00 14 30   ....i9V........0
0050  09 00 00 00 00 00 00 00 00 00 00 00 00 00 00 00   ................
0060  00 00 00 00 00 00 00 00 00 00 00 00 00 00 00 00   ................
0070  00 00 00 00 00 00 00 00 00 00 00 00 00 00 00 00   ................
0080  00 00 00 00 82 00 00 00 00 00 00 4d 12 00 01 02   ...........M....
0090  04 00 01 01 05 00 01 00 06 00 04 00 00 00 13 07   ................
00a0  00 20 df a5 11 0e 6f b9 fb 3f 79 69 ce 18 1b 0f   . ....o..?yi....
00b0  fe 99 c7 2d e0 47 00 00 00 00 00 00 00 00 00 00   ...-.G..........
00c0  00 00 08 00 06 00 00 00 00 00 00 09 00 02 11 b4   ................
00d0  0a 00 01 01 01 00 02 53 52                        .......SR

No.     Time        Source                Destination           Protocol Info
     78 2.389085    192.168.1.102         192.168.1.2           TCP      35914 > 4532 [SYN] Seq=0 Win=18824 Len=0 MSS=1460 WS=0 TSV=121593200 TSER=0

Frame 78 (78 bytes on wire, 78 bytes captured)
    Arrival Time: May 28, 2010 20:47:54.895811000
    [Time delta from previous captured frame: 0.000786000 seconds]
    [Time delta from previous displayed frame: 0.000786000 seconds]
    [Time since reference or first frame: 2.389085000 seconds]
    Frame Number: 78
    Frame Length: 78 bytes
    Capture Length: 78 bytes
    [Frame is marked: False]
    [Protocols in frame: eth:ip:tcp]
    [Coloring Rule Name: TCP SYN/FIN]
    [Coloring Rule String: tcp.flags & 0x02 || tcp.flags.fin == 1]
Ethernet II, Src: Cisco-Li_76:1b:c6 (00:25:9c:76:1b:c6), Dst: Motorola_53:5c:b7 (00:26:ba:53:5c:b7)
    Destination: Motorola_53:5c:b7 (00:26:ba:53:5c:b7)
        Address: Motorola_53:5c:b7 (00:26:ba:53:5c:b7)
        .... ...0 .... .... .... .... = IG bit: Individual address (unicast)
        .... ..0. .... .... .... .... = LG bit: Globally unique address (factory default)
    Source: Cisco-Li_76:1b:c6 (00:25:9c:76:1b:c6)
        Address: Cisco-Li_76:1b:c6 (00:25:9c:76:1b:c6)
        .... ...0 .... .... .... .... = IG bit: Individual address (unicast)
        .... ..0. .... .... .... .... = LG bit: Globally unique address (factory default)
    Type: IP (0x0800)
Internet Protocol, Src: 192.168.1.102 (192.168.1.102), Dst: 192.168.1.2 (192.168.1.2)
    Version: 4
    Header length: 20 bytes
    Differentiated Services Field: 0x00 (DSCP 0x00: Default; ECN: 0x00)
        0000 00.. = Differentiated Services Codepoint: Default (0x00)
        .... ..0. = ECN-Capable Transport (ECT): 0
        .... ...0 = ECN-CE: 0
    Total Length: 64
    Identification: 0x0001 (1)
    Flags: 0x00
        0.. = Reserved bit: Not Set
        .0. = Don't fragment: Not Set
        ..0 = More fragments: Not Set
    Fragment offset: 0
    Time to live: 63
    Protocol: TCP (0x06)
    Header checksum: 0xf7fe [correct]
        [Good: True]
        [Bad : False]
    Source: 192.168.1.102 (192.168.1.102)
    Destination: 192.168.1.2 (192.168.1.2)
Transmission Control Protocol, Src Port: 35914 (35914), Dst Port: 4532 (4532), Seq: 0, Len: 0
    Source port: 35914 (35914)
    Destination port: 4532 (4532)
    [Stream index: 32]
    Sequence number: 0    (relative sequence number)
    Header length: 44 bytes
    Flags: 0x02 (SYN)
        0... .... = Congestion Window Reduced (CWR): Not set
        .0.. .... = ECN-Echo: Not set
        ..0. .... = Urgent: Not set
        ...0 .... = Acknowledgement: Not set
        .... 0... = Push: Not set
        .... .0.. = Reset: Not set
        .... ..1. = Syn: Set
            [Expert Info (Chat/Sequence): Connection establish request (SYN): server port 4532]
                [Message: Connection establish request (SYN): server port 4532]
                [Severity level: Chat]
                [Group: Sequence]
        .... ...0 = Fin: Not set
    Window size: 18824
    Checksum: 0x8c61 [validation disabled]
        [Good Checksum: False]
        [Bad Checksum: False]
    Options: (24 bytes)
        Maximum segment size: 1460 bytes
        NOP
        Window scale: 0 (multiply by 1)
        NOP
        NOP
        SACK permitted
        NOP
        NOP
        Timestamps: TSval 121593200, TSecr 0

0000  00 26 ba 53 5c b7 00 25 9c 76 1b c6 08 00 45 00   .&.S\..%.v....E.
0010  00 40 00 01 00 00 3f 06 f7 fe c0 a8 01 66 c0 a8   .@....?......f..
0020  01 02 8c 4a 11 b4 d5 af 04 01 00 00 00 00 b0 02   ...J............
0030  49 88 8c 61 00 00 02 04 05 b4 01 03 03 00 01 01   I..a............
0040  04 02 01 01 08 0a 07 3f 5d 70 00 00 00 00         .......?]p....

No.     Time        Source                Destination           Protocol Info
     79 2.390988    192.168.1.2           192.168.1.102         TCP      4532 > 35914 [SYN, ACK] Seq=0 Ack=1 Win=5792 Len=0 MSS=1460 TSV=4240999 TSER=121593200 WS=1

Frame 79 (74 bytes on wire, 74 bytes captured)
    Arrival Time: May 28, 2010 20:47:54.897714000
    [Time delta from previous captured frame: 0.001903000 seconds]
    [Time delta from previous displayed frame: 0.001903000 seconds]
    [Time since reference or first frame: 2.390988000 seconds]
    Frame Number: 79
    Frame Length: 74 bytes
    Capture Length: 74 bytes
    [Frame is marked: False]
    [Protocols in frame: eth:ip:tcp]
    [Coloring Rule Name: TCP SYN/FIN]
    [Coloring Rule String: tcp.flags & 0x02 || tcp.flags.fin == 1]
Ethernet II, Src: Motorola_53:5c:b7 (00:26:ba:53:5c:b7), Dst: Cisco-Li_76:1b:c6 (00:25:9c:76:1b:c6)
    Destination: Cisco-Li_76:1b:c6 (00:25:9c:76:1b:c6)
        Address: Cisco-Li_76:1b:c6 (00:25:9c:76:1b:c6)
        .... ...0 .... .... .... .... = IG bit: Individual address (unicast)
        .... ..0. .... .... .... .... = LG bit: Globally unique address (factory default)
    Source: Motorola_53:5c:b7 (00:26:ba:53:5c:b7)
        Address: Motorola_53:5c:b7 (00:26:ba:53:5c:b7)
        .... ...0 .... .... .... .... = IG bit: Individual address (unicast)
        .... ..0. .... .... .... .... = LG bit: Globally unique address (factory default)
    Type: IP (0x0800)
Internet Protocol, Src: 192.168.1.2 (192.168.1.2), Dst: 192.168.1.102 (192.168.1.102)
    Version: 4
    Header length: 20 bytes
    Differentiated Services Field: 0x00 (DSCP 0x00: Default; ECN: 0x00)
        0000 00.. = Differentiated Services Codepoint: Default (0x00)
        .... ..0. = ECN-Capable Transport (ECT): 0
        .... ...0 = ECN-CE: 0
    Total Length: 60
    Identification: 0x0000 (0)
    Flags: 0x02 (Don't Fragment)
        0.. = Reserved bit: Not Set
        .1. = Don't fragment: Set
        ..0 = More fragments: Not Set
    Fragment offset: 0
    Time to live: 64
    Protocol: TCP (0x06)
    Header checksum: 0xb703 [correct]
        [Good: True]
        [Bad : False]
    Source: 192.168.1.2 (192.168.1.2)
    Destination: 192.168.1.102 (192.168.1.102)
Transmission Control Protocol, Src Port: 4532 (4532), Dst Port: 35914 (35914), Seq: 0, Ack: 1, Len: 0
    Source port: 4532 (4532)
    Destination port: 35914 (35914)
    [Stream index: 32]
    Sequence number: 0    (relative sequence number)
    Acknowledgement number: 1    (relative ack number)
    Header length: 40 bytes
    Flags: 0x12 (SYN, ACK)
        0... .... = Congestion Window Reduced (CWR): Not set
        .0.. .... = ECN-Echo: Not set
        ..0. .... = Urgent: Not set
        ...1 .... = Acknowledgement: Set
        .... 0... = Push: Not set
        .... .0.. = Reset: Not set
        .... ..1. = Syn: Set
            [Expert Info (Chat/Sequence): Connection establish acknowledge (SYN+ACK): server port 4532]
                [Message: Connection establish acknowledge (SYN+ACK): server port 4532]
                [Severity level: Chat]
                [Group: Sequence]
        .... ...0 = Fin: Not set
    Window size: 5792
    Checksum: 0x92ab [validation disabled]
        [Good Checksum: False]
        [Bad Checksum: False]
    Options: (20 bytes)
        Maximum segment size: 1460 bytes
        SACK permitted
        Timestamps: TSval 4240999, TSecr 121593200
        NOP
        Window scale: 1 (multiply by 2)
    [SEQ/ACK analysis]
        [This is an ACK to the segment in frame: 74]
        [The RTT to ACK the segment was: 0.059524000 seconds]

0000  00 25 9c 76 1b c6 00 26 ba 53 5c b7 08 00 45 00   .%.v...&.S\...E.
0010  00 3c 00 00 40 00 40 06 b7 03 c0 a8 01 02 c0 a8   .<..@.@.........
0020  01 66 11 b4 8c 4a b6 96 d1 53 d5 af 04 02 a0 12   .f...J...S......
0030  16 a0 92 ab 00 00 02 04 05 b4 04 02 08 0a 00 40   ...............@
0040  b6 67 07 3f 5d 70 01 03 03 01                     .g.?]p....

No.     Time        Source                Destination           Protocol Info
     80 2.391000    192.168.1.5           192.168.1.2           ICMP     Redirect (Redirect for host)

Frame 80 (102 bytes on wire, 102 bytes captured)
    Arrival Time: May 28, 2010 20:47:54.897726000
    [Time delta from previous captured frame: 0.000012000 seconds]
    [Time delta from previous displayed frame: 0.000012000 seconds]
    [Time since reference or first frame: 2.391000000 seconds]
    Frame Number: 80
    Frame Length: 102 bytes
    Capture Length: 102 bytes
    [Frame is marked: False]
    [Protocols in frame: eth:ip:icmp:ip:tcp]
    [Coloring Rule Name: ICMP errors]
    [Coloring Rule String: icmp.type eq 3 || icmp.type eq 4 || icmp.type eq 5 || icmp.type eq 11]
Ethernet II, Src: Cisco-Li_76:1b:c6 (00:25:9c:76:1b:c6), Dst: Motorola_53:5c:b7 (00:26:ba:53:5c:b7)
    Destination: Motorola_53:5c:b7 (00:26:ba:53:5c:b7)
        Address: Motorola_53:5c:b7 (00:26:ba:53:5c:b7)
        .... ...0 .... .... .... .... = IG bit: Individual address (unicast)
        .... ..0. .... .... .... .... = LG bit: Globally unique address (factory default)
    Source: Cisco-Li_76:1b:c6 (00:25:9c:76:1b:c6)
        Address: Cisco-Li_76:1b:c6 (00:25:9c:76:1b:c6)
        .... ...0 .... .... .... .... = IG bit: Individual address (unicast)
        .... ..0. .... .... .... .... = LG bit: Globally unique address (factory default)
    Type: IP (0x0800)
Internet Protocol, Src: 192.168.1.5 (192.168.1.5), Dst: 192.168.1.2 (192.168.1.2)
    Version: 4
    Header length: 20 bytes
    Differentiated Services Field: 0xc0 (DSCP 0x30: Class Selector 6; ECN: 0x00)
        1100 00.. = Differentiated Services Codepoint: Class Selector 6 (0x30)
        .... ..0. = ECN-Capable Transport (ECT): 0
        .... ...0 = ECN-CE: 0
    Total Length: 88
    Identification: 0x9cc4 (40132)
    Flags: 0x00
        0.. = Reserved bit: Not Set
        .0. = Don't fragment: Not Set
        ..0 = More fragments: Not Set
    Fragment offset: 0
    Time to live: 64
    Protocol: ICMP (0x01)
    Header checksum: 0x59c9 [correct]
        [Good: True]
        [Bad : False]
    Source: 192.168.1.5 (192.168.1.5)
    Destination: 192.168.1.2 (192.168.1.2)
Internet Control Message Protocol
    Type: 5 (Redirect)
    Code: 1 (Redirect for host)
    Checksum: 0xbcd7 [correct]
    Gateway address: 192.168.1.102 (192.168.1.102)
    Internet Protocol, Src: 192.168.1.2 (192.168.1.2), Dst: 192.168.1.102 (192.168.1.102)
        Version: 4
        Header length: 20 bytes
        Differentiated Services Field: 0x00 (DSCP 0x00: Default; ECN: 0x00)
            0000 00.. = Differentiated Services Codepoint: Default (0x00)
            .... ..0. = ECN-Capable Transport (ECT): 0
            .... ...0 = ECN-CE: 0
        Total Length: 60
        Identification: 0x0000 (0)
        Flags: 0x02 (Don't Fragment)
            0.. = Reserved bit: Not Set
            .1. = Don't fragment: Set
            ..0 = More fragments: Not Set
        Fragment offset: 0
        Time to live: 63
        Protocol: TCP (0x06)
        Header checksum: 0xb803 [correct]
            [Good: True]
            [Bad : False]
        Source: 192.168.1.2 (192.168.1.2)
        Destination: 192.168.1.102 (192.168.1.102)
    Transmission Control Protocol, Src Port: 4532 (4532), Dst Port: 35914 (35914), Seq: 3063337299, Ack: 3585016834
        Source port: 4532 (4532)
        Destination port: 35914 (35914)
        Sequence number: 3063337299
        [Stream index: 32]
        Sequence number: 3063337299    (relative sequence number)
        Acknowledgement number: 3585016834    (relative ack number)
        Header length: 40 bytes
        Flags: 0x12 (SYN, ACK)
            0... .... = Congestion Window Reduced (CWR): Not set
            .0.. .... = ECN-Echo: Not set
            ..0. .... = Urgent: Not set
            ...1 .... = Acknowledgement: Set
            .... 0... = Push: Not set
            .... .0.. = Reset: Not set
            .... ..1. = Syn: Set
                [Expert Info (Chat/Sequence): Connection establish acknowledge (SYN+ACK): server port 4532]
                    [Message: Connection establish acknowledge (SYN+ACK): server port 4532]
                    [Severity level: Chat]
                    [Group: Sequence]
            .... ...0 = Fin: Not set
        Window size: 5792
        Checksum: 0x92ab [validation disabled]
            [Good Checksum: False]
            [Bad Checksum: False]
        Options: (20 bytes)
            Maximum segment size: 1460 bytes
            SACK permitted
            Timestamps: TSval 4240999, TSecr 121593200
            NOP
            Window scale: 1 (multiply by 2)

0000  00 26 ba 53 5c b7 00 25 9c 76 1b c6 08 00 45 c0   .&.S\..%.v....E.
0010  00 58 9c c4 00 00 40 01 59 c9 c0 a8 01 05 c0 a8   .X....@.Y.......
0020  01 02 05 01 bc d7 c0 a8 01 66 45 00 00 3c 00 00   .........fE..<..
0030  40 00 3f 06 b8 03 c0 a8 01 02 c0 a8 01 66 11 b4   @.?..........f..
0040  8c 4a b6 96 d1 53 d5 af 04 02 a0 12 16 a0 92 ab   .J...S..........
0050  00 00 02 04 05 b4 04 02 08 0a 00 40 b6 67 07 3f   ...........@.g.?
0060  5d 70 01 03 03 01                                 ]p....

No.     Time        Source                Destination           Protocol Info
     81 2.391013    192.168.1.2           192.168.1.102         TCP      4532 > 35914 [SYN, ACK] Seq=0 Ack=1 Win=5792 Len=0 MSS=1460 TSV=4240999 TSER=121593200 WS=1

Frame 81 (74 bytes on wire, 74 bytes captured)
    Arrival Time: May 28, 2010 20:47:54.897739000
    [Time delta from previous captured frame: 0.000013000 seconds]
    [Time delta from previous displayed frame: 0.000013000 seconds]
    [Time since reference or first frame: 2.391013000 seconds]
    Frame Number: 81
    Frame Length: 74 bytes
    Capture Length: 74 bytes
    [Frame is marked: False]
    [Protocols in frame: eth:ip:tcp]
    [Coloring Rule Name: TCP SYN/FIN]
    [Coloring Rule String: tcp.flags & 0x02 || tcp.flags.fin == 1]
Ethernet II, Src: Cisco-Li_76:1b:c6 (00:25:9c:76:1b:c6), Dst: Motorola_87:62:49 (00:23:ed:87:62:49)
    Destination: Motorola_87:62:49 (00:23:ed:87:62:49)
        Address: Motorola_87:62:49 (00:23:ed:87:62:49)
        .... ...0 .... .... .... .... = IG bit: Individual address (unicast)
        .... ..0. .... .... .... .... = LG bit: Globally unique address (factory default)
    Source: Cisco-Li_76:1b:c6 (00:25:9c:76:1b:c6)
        Address: Cisco-Li_76:1b:c6 (00:25:9c:76:1b:c6)
        .... ...0 .... .... .... .... = IG bit: Individual address (unicast)
        .... ..0. .... .... .... .... = LG bit: Globally unique address (factory default)
    Type: IP (0x0800)
Internet Protocol, Src: 192.168.1.2 (192.168.1.2), Dst: 192.168.1.102 (192.168.1.102)
    Version: 4
    Header length: 20 bytes
    Differentiated Services Field: 0x00 (DSCP 0x00: Default; ECN: 0x00)
        0000 00.. = Differentiated Services Codepoint: Default (0x00)
        .... ..0. = ECN-Capable Transport (ECT): 0
        .... ...0 = ECN-CE: 0
    Total Length: 60
    Identification: 0x0000 (0)
    Flags: 0x02 (Don't Fragment)
        0.. = Reserved bit: Not Set
        .1. = Don't fragment: Set
        ..0 = More fragments: Not Set
    Fragment offset: 0
    Time to live: 63
    Protocol: TCP (0x06)
    Header checksum: 0xb803 [correct]
        [Good: True]
        [Bad : False]
    Source: 192.168.1.2 (192.168.1.2)
    Destination: 192.168.1.102 (192.168.1.102)
Transmission Control Protocol, Src Port: 4532 (4532), Dst Port: 35914 (35914), Seq: 0, Ack: 1, Len: 0
    Source port: 4532 (4532)
    Destination port: 35914 (35914)
    [Stream index: 32]
    Sequence number: 0    (relative sequence number)
    Acknowledgement number: 1    (relative ack number)
    Header length: 40 bytes
    Flags: 0x12 (SYN, ACK)
        0... .... = Congestion Window Reduced (CWR): Not set
        .0.. .... = ECN-Echo: Not set
        ..0. .... = Urgent: Not set
        ...1 .... = Acknowledgement: Set
        .... 0... = Push: Not set
        .... .0.. = Reset: Not set
        .... ..1. = Syn: Set
            [Expert Info (Chat/Sequence): Connection establish acknowledge (SYN+ACK): server port 4532]
                [Message: Connection establish acknowledge (SYN+ACK): server port 4532]
                [Severity level: Chat]
                [Group: Sequence]
        .... ...0 = Fin: Not set
    Window size: 5792
    Checksum: 0x92ab [validation disabled]
        [Good Checksum: False]
        [Bad Checksum: False]
    Options: (20 bytes)
        Maximum segment size: 1460 bytes
        SACK permitted
        Timestamps: TSval 4240999, TSecr 121593200
        NOP
        Window scale: 1 (multiply by 2)

0000  00 23 ed 87 62 49 00 25 9c 76 1b c6 08 00 45 00   .#..bI.%.v....E.
0010  00 3c 00 00 40 00 3f 06 b8 03 c0 a8 01 02 c0 a8   .<..@.?.........
0020  01 66 11 b4 8c 4a b6 96 d1 53 d5 af 04 02 a0 12   .f...J...S......
0030  16 a0 92 ab 00 00 02 04 05 b4 04 02 08 0a 00 40   ...............@
0040  b6 67 07 3f 5d 70 01 03 03 01                     .g.?]p....

No.     Time        Source                Destination           Protocol Info
     82 2.397177    192.168.1.102         192.168.1.2           TCP      35914 > 4532 [ACK] Seq=1 Ack=1 Win=18824 Len=0 TSV=121593260 TSER=4240999

Frame 82 (66 bytes on wire, 66 bytes captured)
    Arrival Time: May 28, 2010 20:47:54.903903000
    [Time delta from previous captured frame: 0.006164000 seconds]
    [Time delta from previous displayed frame: 0.006164000 seconds]
    [Time since reference or first frame: 2.397177000 seconds]
    Frame Number: 82
    Frame Length: 66 bytes
    Capture Length: 66 bytes
    [Frame is marked: False]
    [Protocols in frame: eth:ip:tcp]
    [Coloring Rule Name: TCP]
    [Coloring Rule String: tcp]
Ethernet II, Src: Motorola_87:62:49 (00:23:ed:87:62:49), Dst: Cisco-Li_76:1b:c6 (00:25:9c:76:1b:c6)
    Destination: Cisco-Li_76:1b:c6 (00:25:9c:76:1b:c6)
        Address: Cisco-Li_76:1b:c6 (00:25:9c:76:1b:c6)
        .... ...0 .... .... .... .... = IG bit: Individual address (unicast)
        .... ..0. .... .... .... .... = LG bit: Globally unique address (factory default)
    Source: Motorola_87:62:49 (00:23:ed:87:62:49)
        Address: Motorola_87:62:49 (00:23:ed:87:62:49)
        .... ...0 .... .... .... .... = IG bit: Individual address (unicast)
        .... ..0. .... .... .... .... = LG bit: Globally unique address (factory default)
    Type: IP (0x0800)
Internet Protocol, Src: 192.168.1.102 (192.168.1.102), Dst: 192.168.1.2 (192.168.1.2)
    Version: 4
    Header length: 20 bytes
    Differentiated Services Field: 0x00 (DSCP 0x00: Default; ECN: 0x00)
        0000 00.. = Differentiated Services Codepoint: Default (0x00)
        .... ..0. = ECN-Capable Transport (ECT): 0
        .... ...0 = ECN-CE: 0
    Total Length: 52
    Identification: 0x0002 (2)
    Flags: 0x00
        0.. = Reserved bit: Not Set
        .0. = Don't fragment: Not Set
        ..0 = More fragments: Not Set
    Fragment offset: 0
    Time to live: 64
    Protocol: TCP (0x06)
    Header checksum: 0xf709 [correct]
        [Good: True]
        [Bad : False]
    Source: 192.168.1.102 (192.168.1.102)
    Destination: 192.168.1.2 (192.168.1.2)
Transmission Control Protocol, Src Port: 35914 (35914), Dst Port: 4532 (4532), Seq: 1, Ack: 1, Len: 0
    Source port: 35914 (35914)
    Destination port: 4532 (4532)
    [Stream index: 32]
    Sequence number: 1    (relative sequence number)
    Acknowledgement number: 1    (relative ack number)
    Header length: 32 bytes
    Flags: 0x10 (ACK)
        0... .... = Congestion Window Reduced (CWR): Not set
        .0.. .... = ECN-Echo: Not set
        ..0. .... = Urgent: Not set
        ...1 .... = Acknowledgement: Set
        .... 0... = Push: Not set
        .... .0.. = Reset: Not set
        .... ..0. = Syn: Not set
        .... ...0 = Fin: Not set
    Window size: 18824
    Checksum: 0x8e4d [validation disabled]
        [Good Checksum: False]
        [Bad Checksum: False]
    Options: (12 bytes)
        NOP
        NOP
        Timestamps: TSval 121593260, TSecr 4240999
    [SEQ/ACK analysis]
        [This is an ACK to the segment in frame: 79]
        [The RTT to ACK the segment was: 0.006189000 seconds]

0000  00 25 9c 76 1b c6 00 23 ed 87 62 49 08 00 45 00   .%.v...#..bI..E.
0010  00 34 00 02 00 00 40 06 f7 09 c0 a8 01 66 c0 a8   .4....@......f..
0020  01 02 8c 4a 11 b4 d5 af 04 02 b6 96 d1 54 80 10   ...J.........T..
0030  49 88 8e 4d 00 00 01 01 08 0a 07 3f 5d ac 00 40   I..M.......?]..@
0040  b6 67                                             .g

No.     Time        Source                Destination           Protocol Info
     83 2.397190    192.168.1.5           192.168.1.102         ICMP     Redirect (Redirect for host)

Frame 83 (94 bytes on wire, 94 bytes captured)
    Arrival Time: May 28, 2010 20:47:54.903916000
    [Time delta from previous captured frame: 0.000013000 seconds]
    [Time delta from previous displayed frame: 0.000013000 seconds]
    [Time since reference or first frame: 2.397190000 seconds]
    Frame Number: 83
    Frame Length: 94 bytes
    Capture Length: 94 bytes
    [Frame is marked: False]
    [Protocols in frame: eth:ip:icmp:ip:tcp]
    [Coloring Rule Name: ICMP errors]
    [Coloring Rule String: icmp.type eq 3 || icmp.type eq 4 || icmp.type eq 5 || icmp.type eq 11]
Ethernet II, Src: Cisco-Li_76:1b:c6 (00:25:9c:76:1b:c6), Dst: Motorola_87:62:49 (00:23:ed:87:62:49)
    Destination: Motorola_87:62:49 (00:23:ed:87:62:49)
        Address: Motorola_87:62:49 (00:23:ed:87:62:49)
        .... ...0 .... .... .... .... = IG bit: Individual address (unicast)
        .... ..0. .... .... .... .... = LG bit: Globally unique address (factory default)
    Source: Cisco-Li_76:1b:c6 (00:25:9c:76:1b:c6)
        Address: Cisco-Li_76:1b:c6 (00:25:9c:76:1b:c6)
        .... ...0 .... .... .... .... = IG bit: Individual address (unicast)
        .... ..0. .... .... .... .... = LG bit: Globally unique address (factory default)
    Type: IP (0x0800)
Internet Protocol, Src: 192.168.1.5 (192.168.1.5), Dst: 192.168.1.102 (192.168.1.102)
    Version: 4
    Header length: 20 bytes
    Differentiated Services Field: 0xc0 (DSCP 0x30: Class Selector 6; ECN: 0x00)
        1100 00.. = Differentiated Services Codepoint: Class Selector 6 (0x30)
        .... ..0. = ECN-Capable Transport (ECT): 0
        .... ...0 = ECN-CE: 0
    Total Length: 80
    Identification: 0xa6c2 (42690)
    Flags: 0x00
        0.. = Reserved bit: Not Set
        .0. = Don't fragment: Not Set
        ..0 = More fragments: Not Set
    Fragment offset: 0
    Time to live: 64
    Protocol: ICMP (0x01)
    Header checksum: 0x4f6f [correct]
        [Good: True]
        [Bad : False]
    Source: 192.168.1.5 (192.168.1.5)
    Destination: 192.168.1.102 (192.168.1.102)
Internet Control Message Protocol
    Type: 5 (Redirect)
    Code: 1 (Redirect for host)
    Checksum: 0xbd33 [correct]
    Gateway address: 192.168.1.2 (192.168.1.2)
    Internet Protocol, Src: 192.168.1.102 (192.168.1.102), Dst: 192.168.1.2 (192.168.1.2)
        Version: 4
        Header length: 20 bytes
        Differentiated Services Field: 0x00 (DSCP 0x00: Default; ECN: 0x00)
            0000 00.. = Differentiated Services Codepoint: Default (0x00)
            .... ..0. = ECN-Capable Transport (ECT): 0
            .... ...0 = ECN-CE: 0
        Total Length: 52
        Identification: 0x0002 (2)
        Flags: 0x00
            0.. = Reserved bit: Not Set
            .0. = Don't fragment: Not Set
            ..0 = More fragments: Not Set
        Fragment offset: 0
        Time to live: 63
        Protocol: TCP (0x06)
        Header checksum: 0xf809 [correct]
            [Good: True]
            [Bad : False]
        Source: 192.168.1.102 (192.168.1.102)
        Destination: 192.168.1.2 (192.168.1.2)
    Transmission Control Protocol, Src Port: 35914 (35914), Dst Port: 4532 (4532), Seq: 3585016834, Ack: 3063337300
        Source port: 35914 (35914)
        Destination port: 4532 (4532)
        Sequence number: 3585016834
        [Stream index: 32]
        Sequence number: 3585016834    (relative sequence number)
        Acknowledgement number: 3063337300    (relative ack number)
        Header length: 32 bytes
        Flags: 0x10 (ACK)
            0... .... = Congestion Window Reduced (CWR): Not set
            .0.. .... = ECN-Echo: Not set
            ..0. .... = Urgent: Not set
            ...1 .... = Acknowledgement: Set
            .... 0... = Push: Not set
            .... .0.. = Reset: Not set
            .... ..0. = Syn: Not set
            .... ...0 = Fin: Not set
        Window size: 18824
        Checksum: 0x8e4d [validation disabled]
            [Good Checksum: False]
            [Bad Checksum: False]
        Options: (12 bytes)
            NOP
            NOP
            Timestamps: TSval 121593260, TSecr 4240999

0000  00 23 ed 87 62 49 00 25 9c 76 1b c6 08 00 45 c0   .#..bI.%.v....E.
0010  00 50 a6 c2 00 00 40 01 4f 6f c0 a8 01 05 c0 a8   .P....@.Oo......
0020  01 66 05 01 bd 33 c0 a8 01 02 45 00 00 34 00 02   .f...3....E..4..
0030  00 00 3f 06 f8 09 c0 a8 01 66 c0 a8 01 02 8c 4a   ..?......f.....J
0040  11 b4 d5 af 04 02 b6 96 d1 54 80 10 49 88 8e 4d   .........T..I..M
0050  00 00 01 01 08 0a 07 3f 5d ac 00 40 b6 67         .......?]..@.g

No.     Time        Source                Destination           Protocol Info
     84 2.397203    192.168.1.102         192.168.1.2           TCP      [TCP Dup ACK 82#1] 35914 > 4532 [ACK] Seq=1 Ack=1 Win=18824 Len=0 TSV=121593260 TSER=4240999

Frame 84 (66 bytes on wire, 66 bytes captured)
    Arrival Time: May 28, 2010 20:47:54.903929000
    [Time delta from previous captured frame: 0.000013000 seconds]
    [Time delta from previous displayed frame: 0.000013000 seconds]
    [Time since reference or first frame: 2.397203000 seconds]
    Frame Number: 84
    Frame Length: 66 bytes
    Capture Length: 66 bytes
    [Frame is marked: False]
    [Protocols in frame: eth:ip:tcp]
    [Coloring Rule Name: Bad TCP]
    [Coloring Rule String: tcp.analysis.flags]
Ethernet II, Src: Cisco-Li_76:1b:c6 (00:25:9c:76:1b:c6), Dst: Motorola_53:5c:b7 (00:26:ba:53:5c:b7)
    Destination: Motorola_53:5c:b7 (00:26:ba:53:5c:b7)
        Address: Motorola_53:5c:b7 (00:26:ba:53:5c:b7)
        .... ...0 .... .... .... .... = IG bit: Individual address (unicast)
        .... ..0. .... .... .... .... = LG bit: Globally unique address (factory default)
    Source: Cisco-Li_76:1b:c6 (00:25:9c:76:1b:c6)
        Address: Cisco-Li_76:1b:c6 (00:25:9c:76:1b:c6)
        .... ...0 .... .... .... .... = IG bit: Individual address (unicast)
        .... ..0. .... .... .... .... = LG bit: Globally unique address (factory default)
    Type: IP (0x0800)
Internet Protocol, Src: 192.168.1.102 (192.168.1.102), Dst: 192.168.1.2 (192.168.1.2)
    Version: 4
    Header length: 20 bytes
    Differentiated Services Field: 0x00 (DSCP 0x00: Default; ECN: 0x00)
        0000 00.. = Differentiated Services Codepoint: Default (0x00)
        .... ..0. = ECN-Capable Transport (ECT): 0
        .... ...0 = ECN-CE: 0
    Total Length: 52
    Identification: 0x0002 (2)
    Flags: 0x00
        0.. = Reserved bit: Not Set
        .0. = Don't fragment: Not Set
        ..0 = More fragments: Not Set
    Fragment offset: 0
    Time to live: 63
    Protocol: TCP (0x06)
    Header checksum: 0xf809 [correct]
        [Good: True]
        [Bad : False]
    Source: 192.168.1.102 (192.168.1.102)
    Destination: 192.168.1.2 (192.168.1.2)
Transmission Control Protocol, Src Port: 35914 (35914), Dst Port: 4532 (4532), Seq: 1, Ack: 1, Len: 0
    Source port: 35914 (35914)
    Destination port: 4532 (4532)
    [Stream index: 32]
    Sequence number: 1    (relative sequence number)
    Acknowledgement number: 1    (relative ack number)
    Header length: 32 bytes
    Flags: 0x10 (ACK)
        0... .... = Congestion Window Reduced (CWR): Not set
        .0.. .... = ECN-Echo: Not set
        ..0. .... = Urgent: Not set
        ...1 .... = Acknowledgement: Set
        .... 0... = Push: Not set
        .... .0.. = Reset: Not set
        .... ..0. = Syn: Not set
        .... ...0 = Fin: Not set
    Window size: 18824
    Checksum: 0x8e4d [validation disabled]
        [Good Checksum: False]
        [Bad Checksum: False]
    Options: (12 bytes)
        NOP
        NOP
        Timestamps: TSval 121593260, TSecr 4240999
    [SEQ/ACK analysis]
        [TCP Analysis Flags]
            [This is a TCP duplicate ack]
        [Duplicate ACK #: 1]
        [Duplicate to the ACK in frame: 82]
            [Expert Info (Note/Sequence): Duplicate ACK (#1)]
                [Message: Duplicate ACK (#1)]
                [Severity level: Note]
                [Group: Sequence]

0000  00 26 ba 53 5c b7 00 25 9c 76 1b c6 08 00 45 00   .&.S\..%.v....E.
0010  00 34 00 02 00 00 3f 06 f8 09 c0 a8 01 66 c0 a8   .4....?......f..
0020  01 02 8c 4a 11 b4 d5 af 04 02 b6 96 d1 54 80 10   ...J.........T..
0030  49 88 8e 4d 00 00 01 01 08 0a 07 3f 5d ac 00 40   I..M.......?]..@
0040  b6 67                                             .g

No.     Time        Source                Destination           Protocol Info
     85 2.490654    192.168.1.5           192.168.1.2           ICMP     Redirect (Redirect for host)

Frame 85 (102 bytes on wire, 102 bytes captured)
    Arrival Time: May 28, 2010 20:47:54.997380000
    [Time delta from previous captured frame: 0.093451000 seconds]
    [Time delta from previous displayed frame: 0.093451000 seconds]
    [Time since reference or first frame: 2.490654000 seconds]
    Frame Number: 85
    Frame Length: 102 bytes
    Capture Length: 102 bytes
    [Frame is marked: False]
    [Protocols in frame: eth:ip:icmp:ip:tcp]
    [Coloring Rule Name: ICMP errors]
    [Coloring Rule String: icmp.type eq 3 || icmp.type eq 4 || icmp.type eq 5 || icmp.type eq 11]
Ethernet II, Src: Cisco-Li_76:1b:c6 (00:25:9c:76:1b:c6), Dst: Motorola_53:5c:b7 (00:26:ba:53:5c:b7)
    Destination: Motorola_53:5c:b7 (00:26:ba:53:5c:b7)
        Address: Motorola_53:5c:b7 (00:26:ba:53:5c:b7)
        .... ...0 .... .... .... .... = IG bit: Individual address (unicast)
        .... ..0. .... .... .... .... = LG bit: Globally unique address (factory default)
    Source: Cisco-Li_76:1b:c6 (00:25:9c:76:1b:c6)
        Address: Cisco-Li_76:1b:c6 (00:25:9c:76:1b:c6)
        .... ...0 .... .... .... .... = IG bit: Individual address (unicast)
        .... ..0. .... .... .... .... = LG bit: Globally unique address (factory default)
    Type: IP (0x0800)
Internet Protocol, Src: 192.168.1.5 (192.168.1.5), Dst: 192.168.1.2 (192.168.1.2)
    Version: 4
    Header length: 20 bytes
    Differentiated Services Field: 0xc0 (DSCP 0x30: Class Selector 6; ECN: 0x00)
        1100 00.. = Differentiated Services Codepoint: Class Selector 6 (0x30)
        .... ..0. = ECN-Capable Transport (ECT): 0
        .... ...0 = ECN-CE: 0
    Total Length: 88
    Identification: 0x9cc4 (40132)
    Flags: 0x00
        0.. = Reserved bit: Not Set
        .0. = Don't fragment: Not Set
        ..0 = More fragments: Not Set
    Fragment offset: 0
    Time to live: 64
    Protocol: ICMP (0x01)
    Header checksum: 0x59c9 [correct]
        [Good: True]
        [Bad : False]
    Source: 192.168.1.5 (192.168.1.5)
    Destination: 192.168.1.2 (192.168.1.2)
Internet Control Message Protocol
    Type: 5 (Redirect)
    Code: 1 (Redirect for host)
    Checksum: 0xbcd7 [correct]
    Gateway address: 192.168.1.102 (192.168.1.102)
    Internet Protocol, Src: 192.168.1.2 (192.168.1.2), Dst: 192.168.1.102 (192.168.1.102)
        Version: 4
        Header length: 20 bytes
        Differentiated Services Field: 0x00 (DSCP 0x00: Default; ECN: 0x00)
            0000 00.. = Differentiated Services Codepoint: Default (0x00)
            .... ..0. = ECN-Capable Transport (ECT): 0
            .... ...0 = ECN-CE: 0
        Total Length: 60
        Identification: 0x0000 (0)
        Flags: 0x02 (Don't Fragment)
            0.. = Reserved bit: Not Set
            .1. = Don't fragment: Set
            ..0 = More fragments: Not Set
        Fragment offset: 0
        Time to live: 63
        Protocol: TCP (0x06)
        Header checksum: 0xb803 [correct]
            [Good: True]
            [Bad : False]
        Source: 192.168.1.2 (192.168.1.2)
        Destination: 192.168.1.102 (192.168.1.102)
    Transmission Control Protocol, Src Port: 4532 (4532), Dst Port: 35914 (35914), Seq: 3063337299, Ack: 3585016834
        Source port: 4532 (4532)
        Destination port: 35914 (35914)
        Sequence number: 3063337299
        [Stream index: 32]
        Sequence number: 3063337299    (relative sequence number)
        Acknowledgement number: 3585016834    (relative ack number)
        Header length: 40 bytes
        Flags: 0x12 (SYN, ACK)
            0... .... = Congestion Window Reduced (CWR): Not set
            .0.. .... = ECN-Echo: Not set
            ..0. .... = Urgent: Not set
            ...1 .... = Acknowledgement: Set
            .... 0... = Push: Not set
            .... .0.. = Reset: Not set
            .... ..1. = Syn: Set
                [Expert Info (Chat/Sequence): Connection establish acknowledge (SYN+ACK): server port 4532]
                    [Message: Connection establish acknowledge (SYN+ACK): server port 4532]
                    [Severity level: Chat]
                    [Group: Sequence]
            .... ...0 = Fin: Not set
        Window size: 5792
        Checksum: 0x92ab [validation disabled]
            [Good Checksum: False]
            [Bad Checksum: False]
        Options: (20 bytes)
            Maximum segment size: 1460 bytes
            SACK permitted
            Timestamps: TSval 4240999, TSecr 121593200
            NOP
            Window scale: 1 (multiply by 2)

0000  00 26 ba 53 5c b7 00 25 9c 76 1b c6 08 00 45 c0   .&.S\..%.v....E.
0010  00 58 9c c4 00 00 40 01 59 c9 c0 a8 01 05 c0 a8   .X....@.Y.......
0020  01 02 05 01 bc d7 c0 a8 01 66 45 00 00 3c 00 00   .........fE..<..
0030  40 00 3f 06 b8 03 c0 a8 01 02 c0 a8 01 66 11 b4   @.?..........f..
0040  8c 4a b6 96 d1 53 d5 af 04 02 a0 12 16 a0 92 ab   .J...S..........
0050  00 00 02 04 05 b4 04 02 08 0a 00 40 b6 67 07 3f   ...........@.g.?
0060  5d 70 01 03 03 01                                 ]p....

No.     Time        Source                Destination           Protocol Info
     86 2.491448    192.168.1.102         192.168.1.2           TCP      [TCP Dup ACK 82#2] 35914 > 4532 [ACK] Seq=1 Ack=1 Win=18824 Len=0 TSV=121593260 TSER=4240999

Frame 86 (66 bytes on wire, 66 bytes captured)
    Arrival Time: May 28, 2010 20:47:54.998174000
    [Time delta from previous captured frame: 0.000794000 seconds]
    [Time delta from previous displayed frame: 0.000794000 seconds]
    [Time since reference or first frame: 2.491448000 seconds]
    Frame Number: 86
    Frame Length: 66 bytes
    Capture Length: 66 bytes
    [Frame is marked: False]
    [Protocols in frame: eth:ip:tcp]
    [Coloring Rule Name: Bad TCP]
    [Coloring Rule String: tcp.analysis.flags]
Ethernet II, Src: Cisco-Li_76:1b:c6 (00:25:9c:76:1b:c6), Dst: Motorola_53:5c:b7 (00:26:ba:53:5c:b7)
    Destination: Motorola_53:5c:b7 (00:26:ba:53:5c:b7)
        Address: Motorola_53:5c:b7 (00:26:ba:53:5c:b7)
        .... ...0 .... .... .... .... = IG bit: Individual address (unicast)
        .... ..0. .... .... .... .... = LG bit: Globally unique address (factory default)
    Source: Cisco-Li_76:1b:c6 (00:25:9c:76:1b:c6)
        Address: Cisco-Li_76:1b:c6 (00:25:9c:76:1b:c6)
        .... ...0 .... .... .... .... = IG bit: Individual address (unicast)
        .... ..0. .... .... .... .... = LG bit: Globally unique address (factory default)
    Type: IP (0x0800)
Internet Protocol, Src: 192.168.1.102 (192.168.1.102), Dst: 192.168.1.2 (192.168.1.2)
    Version: 4
    Header length: 20 bytes
    Differentiated Services Field: 0x00 (DSCP 0x00: Default; ECN: 0x00)
        0000 00.. = Differentiated Services Codepoint: Default (0x00)
        .... ..0. = ECN-Capable Transport (ECT): 0
        .... ...0 = ECN-CE: 0
    Total Length: 52
    Identification: 0x0002 (2)
    Flags: 0x00
        0.. = Reserved bit: Not Set
        .0. = Don't fragment: Not Set
        ..0 = More fragments: Not Set
    Fragment offset: 0
    Time to live: 63
    Protocol: TCP (0x06)
    Header checksum: 0xf809 [correct]
        [Good: True]
        [Bad : False]
    Source: 192.168.1.102 (192.168.1.102)
    Destination: 192.168.1.2 (192.168.1.2)
Transmission Control Protocol, Src Port: 35914 (35914), Dst Port: 4532 (4532), Seq: 1, Ack: 1, Len: 0
    Source port: 35914 (35914)
    Destination port: 4532 (4532)
    [Stream index: 32]
    Sequence number: 1    (relative sequence number)
    Acknowledgement number: 1    (relative ack number)
    Header length: 32 bytes
    Flags: 0x10 (ACK)
        0... .... = Congestion Window Reduced (CWR): Not set
        .0.. .... = ECN-Echo: Not set
        ..0. .... = Urgent: Not set
        ...1 .... = Acknowledgement: Set
        .... 0... = Push: Not set
        .... .0.. = Reset: Not set
        .... ..0. = Syn: Not set
        .... ...0 = Fin: Not set
    Window size: 18824
    Checksum: 0x8e4d [validation disabled]
        [Good Checksum: False]
        [Bad Checksum: False]
    Options: (12 bytes)
        NOP
        NOP
        Timestamps: TSval 121593260, TSecr 4240999
    [SEQ/ACK analysis]
        [TCP Analysis Flags]
            [This is a TCP duplicate ack]
        [Duplicate ACK #: 2]
        [Duplicate to the ACK in frame: 82]
            [Expert Info (Note/Sequence): Duplicate ACK (#2)]
                [Message: Duplicate ACK (#2)]
                [Severity level: Note]
                [Group: Sequence]

0000  00 26 ba 53 5c b7 00 25 9c 76 1b c6 08 00 45 00   .&.S\..%.v....E.
0010  00 34 00 02 00 00 3f 06 f8 09 c0 a8 01 66 c0 a8   .4....?......f..
0020  01 02 8c 4a 11 b4 d5 af 04 02 b6 96 d1 54 80 10   ...J.........T..
0030  49 88 8e 4d 00 00 01 01 08 0a 07 3f 5d ac 00 40   I..M.......?]..@
0040  b6 67                                             .g

No.     Time        Source                Destination           Protocol Info
     87 2.496388    192.168.1.2           192.168.1.102         TCP      4532 > 35914 [PSH, ACK] Seq=1 Ack=1 Win=5792 Len=178 TSV=4241012 TSER=121593260

Frame 87 (244 bytes on wire, 244 bytes captured)
    Arrival Time: May 28, 2010 20:47:55.003114000
    [Time delta from previous captured frame: 0.004940000 seconds]
    [Time delta from previous displayed frame: 0.004940000 seconds]
    [Time since reference or first frame: 2.496388000 seconds]
    Frame Number: 87
    Frame Length: 244 bytes
    Capture Length: 244 bytes
    [Frame is marked: False]
    [Protocols in frame: eth:ip:tcp:data]
    [Coloring Rule Name: TCP]
    [Coloring Rule String: tcp]
Ethernet II, Src: Motorola_53:5c:b7 (00:26:ba:53:5c:b7), Dst: Cisco-Li_76:1b:c6 (00:25:9c:76:1b:c6)
    Destination: Cisco-Li_76:1b:c6 (00:25:9c:76:1b:c6)
        Address: Cisco-Li_76:1b:c6 (00:25:9c:76:1b:c6)
        .... ...0 .... .... .... .... = IG bit: Individual address (unicast)
        .... ..0. .... .... .... .... = LG bit: Globally unique address (factory default)
    Source: Motorola_53:5c:b7 (00:26:ba:53:5c:b7)
        Address: Motorola_53:5c:b7 (00:26:ba:53:5c:b7)
        .... ...0 .... .... .... .... = IG bit: Individual address (unicast)
        .... ..0. .... .... .... .... = LG bit: Globally unique address (factory default)
    Type: IP (0x0800)
Internet Protocol, Src: 192.168.1.2 (192.168.1.2), Dst: 192.168.1.102 (192.168.1.102)
    Version: 4
    Header length: 20 bytes
    Differentiated Services Field: 0x00 (DSCP 0x00: Default; ECN: 0x00)
        0000 00.. = Differentiated Services Codepoint: Default (0x00)
        .... ..0. = ECN-Capable Transport (ECT): 0
        .... ...0 = ECN-CE: 0
    Total Length: 230
    Identification: 0x6720 (26400)
    Flags: 0x02 (Don't Fragment)
        0.. = Reserved bit: Not Set
        .1. = Don't fragment: Set
        ..0 = More fragments: Not Set
    Fragment offset: 0
    Time to live: 64
    Protocol: TCP (0x06)
    Header checksum: 0x4f39 [correct]
        [Good: True]
        [Bad : False]
    Source: 192.168.1.2 (192.168.1.2)
    Destination: 192.168.1.102 (192.168.1.102)
Transmission Control Protocol, Src Port: 4532 (4532), Dst Port: 35914 (35914), Seq: 1, Ack: 1, Len: 178
    Source port: 4532 (4532)
    Destination port: 35914 (35914)
    [Stream index: 32]
    Sequence number: 1    (relative sequence number)
    [Next sequence number: 179    (relative sequence number)]
    Acknowledgement number: 1    (relative ack number)
    Header length: 32 bytes
    Flags: 0x18 (PSH, ACK)
        0... .... = Congestion Window Reduced (CWR): Not set
        .0.. .... = ECN-Echo: Not set
        ..0. .... = Urgent: Not set
        ...1 .... = Acknowledgement: Set
        .... 1... = Push: Set
        .... .0.. = Reset: Not set
        .... ..0. = Syn: Not set
        .... ...0 = Fin: Not set
    Window size: 5792 (scaled)
    Checksum: 0x8654 [validation disabled]
        [Good Checksum: False]
        [Bad Checksum: False]
    Options: (12 bytes)
        NOP
        NOP
        Timestamps: TSval 4241012, TSecr 121593260
    [SEQ/ACK analysis]
        [This is an ACK to the segment in frame: 82]
        [The RTT to ACK the segment was: 0.099211000 seconds]
        [Number of bytes in flight: 178]
Data (178 bytes)
    Data: 560202010003000014300A00000000000000000000000000...
    [Length: 178]

0000  00 25 9c 76 1b c6 00 26 ba 53 5c b7 08 00 45 00   .%.v...&.S\...E.
0010  00 e6 67 20 40 00 40 06 4f 39 c0 a8 01 02 c0 a8   ..g @.@.O9......
0020  01 66 11 b4 8c 4a b6 96 d1 54 d5 af 04 02 80 18   .f...J...T......
0030  0b 50 86 54 00 00 01 01 08 0a 00 40 b6 74 07 3f   .P.T.......@.t.?
0040  5d ac 56 02 02 01 00 03 00 00 14 30 0a 00 00 00   ].V........0....
0050  00 00 00 00 00 00 00 00 00 00 00 00 00 00 00 00   ................
0060  00 00 00 00 00 00 00 00 00 00 00 00 00 00 00 00   ................
0070  00 00 00 00 00 00 00 00 00 00 00 00 00 00 00 00   ................
0080  0a 00 00 00 00 00 00 6c 12 00 01 02 01 00 02 53   .......l.......S
0090  52 04 00 01 01 05 00 01 00 06 00 04 00 00 00 13   R...............
00a0  07 00 20 00 00 00 00 00 00 00 00 00 00 00 00 00   .. .............
00b0  00 00 00 00 00 00 00 00 00 00 00 00 00 00 00 00   ................
00c0  00 00 00 0b 00 04 00 00 00 00 0c 00 02 00 00 0d   ................
00d0  00 04 00 00 00 00 0e 00 04 00 00 00 00 0f 00 06   ................
00e0  00 00 00 00 00 00 10 00 04 00 00 00 00 11 00 04   ................
00f0  00 00 00 00                                       ....

No.     Time        Source                Destination           Protocol Info
     88 2.496404    192.168.1.5           192.168.1.2           ICMP     Redirect (Redirect for host)

Frame 88 (272 bytes on wire, 272 bytes captured)
    Arrival Time: May 28, 2010 20:47:55.003130000
    [Time delta from previous captured frame: 0.000016000 seconds]
    [Time delta from previous displayed frame: 0.000016000 seconds]
    [Time since reference or first frame: 2.496404000 seconds]
    Frame Number: 88
    Frame Length: 272 bytes
    Capture Length: 272 bytes
    [Frame is marked: False]
    [Protocols in frame: eth:ip:icmp:ip:tcp:data]
    [Coloring Rule Name: ICMP errors]
    [Coloring Rule String: icmp.type eq 3 || icmp.type eq 4 || icmp.type eq 5 || icmp.type eq 11]
Ethernet II, Src: Cisco-Li_76:1b:c6 (00:25:9c:76:1b:c6), Dst: Motorola_53:5c:b7 (00:26:ba:53:5c:b7)
    Destination: Motorola_53:5c:b7 (00:26:ba:53:5c:b7)
        Address: Motorola_53:5c:b7 (00:26:ba:53:5c:b7)
        .... ...0 .... .... .... .... = IG bit: Individual address (unicast)
        .... ..0. .... .... .... .... = LG bit: Globally unique address (factory default)
    Source: Cisco-Li_76:1b:c6 (00:25:9c:76:1b:c6)
        Address: Cisco-Li_76:1b:c6 (00:25:9c:76:1b:c6)
        .... ...0 .... .... .... .... = IG bit: Individual address (unicast)
        .... ..0. .... .... .... .... = LG bit: Globally unique address (factory default)
    Type: IP (0x0800)
Internet Protocol, Src: 192.168.1.5 (192.168.1.5), Dst: 192.168.1.2 (192.168.1.2)
    Version: 4
    Header length: 20 bytes
    Differentiated Services Field: 0xc0 (DSCP 0x30: Class Selector 6; ECN: 0x00)
        1100 00.. = Differentiated Services Codepoint: Class Selector 6 (0x30)
        .... ..0. = ECN-Capable Transport (ECT): 0
        .... ...0 = ECN-CE: 0
    Total Length: 258
    Identification: 0x9cc5 (40133)
    Flags: 0x00
        0.. = Reserved bit: Not Set
        .0. = Don't fragment: Not Set
        ..0 = More fragments: Not Set
    Fragment offset: 0
    Time to live: 64
    Protocol: ICMP (0x01)
    Header checksum: 0x591e [correct]
        [Good: True]
        [Bad : False]
    Source: 192.168.1.5 (192.168.1.5)
    Destination: 192.168.1.2 (192.168.1.2)
Internet Control Message Protocol
    Type: 5 (Redirect)
    Code: 1 (Redirect for host)
    Checksum: 0xbd81 [correct]
    Gateway address: 192.168.1.102 (192.168.1.102)
    Internet Protocol, Src: 192.168.1.2 (192.168.1.2), Dst: 192.168.1.102 (192.168.1.102)
        Version: 4
        Header length: 20 bytes
        Differentiated Services Field: 0x00 (DSCP 0x00: Default; ECN: 0x00)
            0000 00.. = Differentiated Services Codepoint: Default (0x00)
            .... ..0. = ECN-Capable Transport (ECT): 0
            .... ...0 = ECN-CE: 0
        Total Length: 230
        Identification: 0x6720 (26400)
        Flags: 0x02 (Don't Fragment)
            0.. = Reserved bit: Not Set
            .1. = Don't fragment: Set
            ..0 = More fragments: Not Set
        Fragment offset: 0
        Time to live: 63
        Protocol: TCP (0x06)
        Header checksum: 0x5039 [correct]
            [Good: True]
            [Bad : False]
        Source: 192.168.1.2 (192.168.1.2)
        Destination: 192.168.1.102 (192.168.1.102)
    Transmission Control Protocol, Src Port: 4532 (4532), Dst Port: 35914 (35914), Seq: 3063337300, Ack: 3585016834
        Source port: 4532 (4532)
        Destination port: 35914 (35914)
        Sequence number: 3063337300
        [Stream index: 32]
        Sequence number: 3063337300    (relative sequence number)
        Acknowledgement number: 3585016834    (relative ack number)
        Header length: 32 bytes
        Flags: 0x18 (PSH, ACK)
            0... .... = Congestion Window Reduced (CWR): Not set
            .0.. .... = ECN-Echo: Not set
            ..0. .... = Urgent: Not set
            ...1 .... = Acknowledgement: Set
            .... 1... = Push: Set
            .... .0.. = Reset: Not set
            .... ..0. = Syn: Not set
            .... ...0 = Fin: Not set
        Window size: 2896
        Checksum: 0x8654 [validation disabled]
            [Good Checksum: False]
            [Bad Checksum: False]
        Options: (12 bytes)
            NOP
            NOP
            Timestamps: TSval 4241012, TSecr 121593260
    Data (178 bytes)
        Data: 560202010003000014300A00000000000000000000000000...
        [Length: 178]

0000  00 26 ba 53 5c b7 00 25 9c 76 1b c6 08 00 45 c0   .&.S\..%.v....E.
0010  01 02 9c c5 00 00 40 01 59 1e c0 a8 01 05 c0 a8   ......@.Y.......
0020  01 02 05 01 bd 81 c0 a8 01 66 45 00 00 e6 67 20   .........fE...g 
0030  40 00 3f 06 50 39 c0 a8 01 02 c0 a8 01 66 11 b4   @.?.P9.......f..
0040  8c 4a b6 96 d1 54 d5 af 04 02 80 18 0b 50 86 54   .J...T.......P.T
0050  00 00 01 01 08 0a 00 40 b6 74 07 3f 5d ac 56 02   .......@.t.?].V.
0060  02 01 00 03 00 00 14 30 0a 00 00 00 00 00 00 00   .......0........
0070  00 00 00 00 00 00 00 00 00 00 00 00 00 00 00 00   ................
0080  00 00 00 00 00 00 00 00 00 00 00 00 00 00 00 00   ................
0090  00 00 00 00 00 00 00 00 00 00 00 00 0a 00 00 00   ................
00a0  00 00 00 6c 12 00 01 02 01 00 02 53 52 04 00 01   ...l.......SR...
00b0  01 05 00 01 00 06 00 04 00 00 00 13 07 00 20 00   .............. .
00c0  00 00 00 00 00 00 00 00 00 00 00 00 00 00 00 00   ................
00d0  00 00 00 00 00 00 00 00 00 00 00 00 00 00 00 0b   ................
00e0  00 04 00 00 00 00 0c 00 02 00 00 0d 00 04 00 00   ................
00f0  00 00 0e 00 04 00 00 00 00 0f 00 06 00 00 00 00   ................
0100  00 00 10 00 04 00 00 00 00 11 00 04 00 00 00 00   ................

No.     Time        Source                Destination           Protocol Info
     89 2.496417    192.168.1.2           192.168.1.102         TCP      [TCP Fast Retransmission] 4532 > 35914 [PSH, ACK] Seq=1 Ack=1 Win=5792 Len=178 TSV=4241012 TSER=121593260

Frame 89 (244 bytes on wire, 244 bytes captured)
    Arrival Time: May 28, 2010 20:47:55.003143000
    [Time delta from previous captured frame: 0.000013000 seconds]
    [Time delta from previous displayed frame: 0.000013000 seconds]
    [Time since reference or first frame: 2.496417000 seconds]
    Frame Number: 89
    Frame Length: 244 bytes
    Capture Length: 244 bytes
    [Frame is marked: False]
    [Protocols in frame: eth:ip:tcp:data]
    [Coloring Rule Name: Bad TCP]
    [Coloring Rule String: tcp.analysis.flags]
Ethernet II, Src: Cisco-Li_76:1b:c6 (00:25:9c:76:1b:c6), Dst: Motorola_87:62:49 (00:23:ed:87:62:49)
    Destination: Motorola_87:62:49 (00:23:ed:87:62:49)
        Address: Motorola_87:62:49 (00:23:ed:87:62:49)
        .... ...0 .... .... .... .... = IG bit: Individual address (unicast)
        .... ..0. .... .... .... .... = LG bit: Globally unique address (factory default)
    Source: Cisco-Li_76:1b:c6 (00:25:9c:76:1b:c6)
        Address: Cisco-Li_76:1b:c6 (00:25:9c:76:1b:c6)
        .... ...0 .... .... .... .... = IG bit: Individual address (unicast)
        .... ..0. .... .... .... .... = LG bit: Globally unique address (factory default)
    Type: IP (0x0800)
Internet Protocol, Src: 192.168.1.2 (192.168.1.2), Dst: 192.168.1.102 (192.168.1.102)
    Version: 4
    Header length: 20 bytes
    Differentiated Services Field: 0x00 (DSCP 0x00: Default; ECN: 0x00)
        0000 00.. = Differentiated Services Codepoint: Default (0x00)
        .... ..0. = ECN-Capable Transport (ECT): 0
        .... ...0 = ECN-CE: 0
    Total Length: 230
    Identification: 0x6720 (26400)
    Flags: 0x02 (Don't Fragment)
        0.. = Reserved bit: Not Set
        .1. = Don't fragment: Set
        ..0 = More fragments: Not Set
    Fragment offset: 0
    Time to live: 63
    Protocol: TCP (0x06)
    Header checksum: 0x5039 [correct]
        [Good: True]
        [Bad : False]
    Source: 192.168.1.2 (192.168.1.2)
    Destination: 192.168.1.102 (192.168.1.102)
Transmission Control Protocol, Src Port: 4532 (4532), Dst Port: 35914 (35914), Seq: 1, Ack: 1, Len: 178
    Source port: 4532 (4532)
    Destination port: 35914 (35914)
    [Stream index: 32]
    Sequence number: 1    (relative sequence number)
    [Next sequence number: 179    (relative sequence number)]
    Acknowledgement number: 1    (relative ack number)
    Header length: 32 bytes
    Flags: 0x18 (PSH, ACK)
        0... .... = Congestion Window Reduced (CWR): Not set
        .0.. .... = ECN-Echo: Not set
        ..0. .... = Urgent: Not set
        ...1 .... = Acknowledgement: Set
        .... 1... = Push: Set
        .... .0.. = Reset: Not set
        .... ..0. = Syn: Not set
        .... ...0 = Fin: Not set
    Window size: 5792 (scaled)
    Checksum: 0x8654 [validation disabled]
        [Good Checksum: False]
        [Bad Checksum: False]
    Options: (12 bytes)
        NOP
        NOP
        Timestamps: TSval 4241012, TSecr 121593260
    [SEQ/ACK analysis]
        [Number of bytes in flight: 178]
        [TCP Analysis Flags]
            [This frame is a (suspected) fast retransmission]
                [Expert Info (Warn/Sequence): Fast retransmission (suspected)]
                    [Message: Fast retransmission (suspected)]
                    [Severity level: Warn]
                    [Group: Sequence]
            [This frame is a (suspected) retransmission]
Data (178 bytes)
    Data: 560202010003000014300A00000000000000000000000000...
    [Length: 178]

0000  00 23 ed 87 62 49 00 25 9c 76 1b c6 08 00 45 00   .#..bI.%.v....E.
0010  00 e6 67 20 40 00 3f 06 50 39 c0 a8 01 02 c0 a8   ..g @.?.P9......
0020  01 66 11 b4 8c 4a b6 96 d1 54 d5 af 04 02 80 18   .f...J...T......
0030  0b 50 86 54 00 00 01 01 08 0a 00 40 b6 74 07 3f   .P.T.......@.t.?
0040  5d ac 56 02 02 01 00 03 00 00 14 30 0a 00 00 00   ].V........0....
0050  00 00 00 00 00 00 00 00 00 00 00 00 00 00 00 00   ................
0060  00 00 00 00 00 00 00 00 00 00 00 00 00 00 00 00   ................
0070  00 00 00 00 00 00 00 00 00 00 00 00 00 00 00 00   ................
0080  0a 00 00 00 00 00 00 6c 12 00 01 02 01 00 02 53   .......l.......S
0090  52 04 00 01 01 05 00 01 00 06 00 04 00 00 00 13   R...............
00a0  07 00 20 00 00 00 00 00 00 00 00 00 00 00 00 00   .. .............
00b0  00 00 00 00 00 00 00 00 00 00 00 00 00 00 00 00   ................
00c0  00 00 00 0b 00 04 00 00 00 00 0c 00 02 00 00 0d   ................
00d0  00 04 00 00 00 00 0e 00 04 00 00 00 00 0f 00 06   ................
00e0  00 00 00 00 00 00 10 00 04 00 00 00 00 11 00 04   ................
00f0  00 00 00 00                                       ....

No.     Time        Source                Destination           Protocol Info
     90 2.593023    192.168.1.5           192.168.1.2           ICMP     Redirect (Redirect for host)

Frame 90 (272 bytes on wire, 272 bytes captured)
    Arrival Time: May 28, 2010 20:47:55.099749000
    [Time delta from previous captured frame: 0.096606000 seconds]
    [Time delta from previous displayed frame: 0.096606000 seconds]
    [Time since reference or first frame: 2.593023000 seconds]
    Frame Number: 90
    Frame Length: 272 bytes
    Capture Length: 272 bytes
    [Frame is marked: False]
    [Protocols in frame: eth:ip:icmp:ip:tcp:data]
    [Coloring Rule Name: ICMP errors]
    [Coloring Rule String: icmp.type eq 3 || icmp.type eq 4 || icmp.type eq 5 || icmp.type eq 11]
Ethernet II, Src: Cisco-Li_76:1b:c6 (00:25:9c:76:1b:c6), Dst: Motorola_53:5c:b7 (00:26:ba:53:5c:b7)
    Destination: Motorola_53:5c:b7 (00:26:ba:53:5c:b7)
        Address: Motorola_53:5c:b7 (00:26:ba:53:5c:b7)
        .... ...0 .... .... .... .... = IG bit: Individual address (unicast)
        .... ..0. .... .... .... .... = LG bit: Globally unique address (factory default)
    Source: Cisco-Li_76:1b:c6 (00:25:9c:76:1b:c6)
        Address: Cisco-Li_76:1b:c6 (00:25:9c:76:1b:c6)
        .... ...0 .... .... .... .... = IG bit: Individual address (unicast)
        .... ..0. .... .... .... .... = LG bit: Globally unique address (factory default)
    Type: IP (0x0800)
Internet Protocol, Src: 192.168.1.5 (192.168.1.5), Dst: 192.168.1.2 (192.168.1.2)
    Version: 4
    Header length: 20 bytes
    Differentiated Services Field: 0xc0 (DSCP 0x30: Class Selector 6; ECN: 0x00)
        1100 00.. = Differentiated Services Codepoint: Class Selector 6 (0x30)
        .... ..0. = ECN-Capable Transport (ECT): 0
        .... ...0 = ECN-CE: 0
    Total Length: 258
    Identification: 0x9cc5 (40133)
    Flags: 0x00
        0.. = Reserved bit: Not Set
        .0. = Don't fragment: Not Set
        ..0 = More fragments: Not Set
    Fragment offset: 0
    Time to live: 64
    Protocol: ICMP (0x01)
    Header checksum: 0x591e [correct]
        [Good: True]
        [Bad : False]
    Source: 192.168.1.5 (192.168.1.5)
    Destination: 192.168.1.2 (192.168.1.2)
Internet Control Message Protocol
    Type: 5 (Redirect)
    Code: 1 (Redirect for host)
    Checksum: 0xbd81 [correct]
    Gateway address: 192.168.1.102 (192.168.1.102)
    Internet Protocol, Src: 192.168.1.2 (192.168.1.2), Dst: 192.168.1.102 (192.168.1.102)
        Version: 4
        Header length: 20 bytes
        Differentiated Services Field: 0x00 (DSCP 0x00: Default; ECN: 0x00)
            0000 00.. = Differentiated Services Codepoint: Default (0x00)
            .... ..0. = ECN-Capable Transport (ECT): 0
            .... ...0 = ECN-CE: 0
        Total Length: 230
        Identification: 0x6720 (26400)
        Flags: 0x02 (Don't Fragment)
            0.. = Reserved bit: Not Set
            .1. = Don't fragment: Set
            ..0 = More fragments: Not Set
        Fragment offset: 0
        Time to live: 63
        Protocol: TCP (0x06)
        Header checksum: 0x5039 [correct]
            [Good: True]
            [Bad : False]
        Source: 192.168.1.2 (192.168.1.2)
        Destination: 192.168.1.102 (192.168.1.102)
    Transmission Control Protocol, Src Port: 4532 (4532), Dst Port: 35914 (35914), Seq: 3063337300, Ack: 3585016834
        Source port: 4532 (4532)
        Destination port: 35914 (35914)
        Sequence number: 3063337300
        [Stream index: 32]
        Sequence number: 3063337300    (relative sequence number)
        Acknowledgement number: 3585016834    (relative ack number)
        Header length: 32 bytes
        Flags: 0x18 (PSH, ACK)
            0... .... = Congestion Window Reduced (CWR): Not set
            .0.. .... = ECN-Echo: Not set
            ..0. .... = Urgent: Not set
            ...1 .... = Acknowledgement: Set
            .... 1... = Push: Set
            .... .0.. = Reset: Not set
            .... ..0. = Syn: Not set
            .... ...0 = Fin: Not set
        Window size: 2896
        Checksum: 0x8654 [validation disabled]
            [Good Checksum: False]
            [Bad Checksum: False]
        Options: (12 bytes)
            NOP
            NOP
            Timestamps: TSval 4241012, TSecr 121593260
    Data (178 bytes)
        Data: 560202010003000014300A00000000000000000000000000...
        [Length: 178]

0000  00 26 ba 53 5c b7 00 25 9c 76 1b c6 08 00 45 c0   .&.S\..%.v....E.
0010  01 02 9c c5 00 00 40 01 59 1e c0 a8 01 05 c0 a8   ......@.Y.......
0020  01 02 05 01 bd 81 c0 a8 01 66 45 00 00 e6 67 20   .........fE...g 
0030  40 00 3f 06 50 39 c0 a8 01 02 c0 a8 01 66 11 b4   @.?.P9.......f..
0040  8c 4a b6 96 d1 54 d5 af 04 02 80 18 0b 50 86 54   .J...T.......P.T
0050  00 00 01 01 08 0a 00 40 b6 74 07 3f 5d ac 56 02   .......@.t.?].V.
0060  02 01 00 03 00 00 14 30 0a 00 00 00 00 00 00 00   .......0........
0070  00 00 00 00 00 00 00 00 00 00 00 00 00 00 00 00   ................
0080  00 00 00 00 00 00 00 00 00 00 00 00 00 00 00 00   ................
0090  00 00 00 00 00 00 00 00 00 00 00 00 0a 00 00 00   ................
00a0  00 00 00 6c 12 00 01 02 01 00 02 53 52 04 00 01   ...l.......SR...
00b0  01 05 00 01 00 06 00 04 00 00 00 13 07 00 20 00   .............. .
00c0  00 00 00 00 00 00 00 00 00 00 00 00 00 00 00 00   ................
00d0  00 00 00 00 00 00 00 00 00 00 00 00 00 00 00 0b   ................
00e0  00 04 00 00 00 00 0c 00 02 00 00 0d 00 04 00 00   ................
00f0  00 00 0e 00 04 00 00 00 00 0f 00 06 00 00 00 00   ................
0100  00 00 10 00 04 00 00 00 00 11 00 04 00 00 00 00   ................

No.     Time        Source                Destination           Protocol Info
     91 2.695140    192.168.1.102         192.168.1.2           TCP      35914 > 4532 [ACK] Seq=1 Ack=179 Win=18646 Len=0 TSV=121593560 TSER=4241012

Frame 91 (66 bytes on wire, 66 bytes captured)
    Arrival Time: May 28, 2010 20:47:55.201866000
    [Time delta from previous captured frame: 0.102117000 seconds]
    [Time delta from previous displayed frame: 0.102117000 seconds]
    [Time since reference or first frame: 2.695140000 seconds]
    Frame Number: 91
    Frame Length: 66 bytes
    Capture Length: 66 bytes
    [Frame is marked: False]
    [Protocols in frame: eth:ip:tcp]
    [Coloring Rule Name: TCP]
    [Coloring Rule String: tcp]
Ethernet II, Src: Motorola_87:62:49 (00:23:ed:87:62:49), Dst: Cisco-Li_76:1b:c6 (00:25:9c:76:1b:c6)
    Destination: Cisco-Li_76:1b:c6 (00:25:9c:76:1b:c6)
        Address: Cisco-Li_76:1b:c6 (00:25:9c:76:1b:c6)
        .... ...0 .... .... .... .... = IG bit: Individual address (unicast)
        .... ..0. .... .... .... .... = LG bit: Globally unique address (factory default)
    Source: Motorola_87:62:49 (00:23:ed:87:62:49)
        Address: Motorola_87:62:49 (00:23:ed:87:62:49)
        .... ...0 .... .... .... .... = IG bit: Individual address (unicast)
        .... ..0. .... .... .... .... = LG bit: Globally unique address (factory default)
    Type: IP (0x0800)
Internet Protocol, Src: 192.168.1.102 (192.168.1.102), Dst: 192.168.1.2 (192.168.1.2)
    Version: 4
    Header length: 20 bytes
    Differentiated Services Field: 0x00 (DSCP 0x00: Default; ECN: 0x00)
        0000 00.. = Differentiated Services Codepoint: Default (0x00)
        .... ..0. = ECN-Capable Transport (ECT): 0
        .... ...0 = ECN-CE: 0
    Total Length: 52
    Identification: 0x0003 (3)
    Flags: 0x00
        0.. = Reserved bit: Not Set
        .0. = Don't fragment: Not Set
        ..0 = More fragments: Not Set
    Fragment offset: 0
    Time to live: 64
    Protocol: TCP (0x06)
    Header checksum: 0xf708 [correct]
        [Good: True]
        [Bad : False]
    Source: 192.168.1.102 (192.168.1.102)
    Destination: 192.168.1.2 (192.168.1.2)
Transmission Control Protocol, Src Port: 35914 (35914), Dst Port: 4532 (4532), Seq: 1, Ack: 179, Len: 0
    Source port: 35914 (35914)
    Destination port: 4532 (4532)
    [Stream index: 32]
    Sequence number: 1    (relative sequence number)
    Acknowledgement number: 179    (relative ack number)
    Header length: 32 bytes
    Flags: 0x10 (ACK)
        0... .... = Congestion Window Reduced (CWR): Not set
        .0.. .... = ECN-Echo: Not set
        ..0. .... = Urgent: Not set
        ...1 .... = Acknowledgement: Set
        .... 0... = Push: Not set
        .... .0.. = Reset: Not set
        .... ..0. = Syn: Not set
        .... ...0 = Fin: Not set
    Window size: 18646
    Checksum: 0x8d14 [validation disabled]
        [Good Checksum: False]
        [Bad Checksum: False]
    Options: (12 bytes)
        NOP
        NOP
        Timestamps: TSval 121593560, TSecr 4241012
    [SEQ/ACK analysis]
        [This is an ACK to the segment in frame: 87]
        [The RTT to ACK the segment was: 0.198752000 seconds]

0000  00 25 9c 76 1b c6 00 23 ed 87 62 49 08 00 45 00   .%.v...#..bI..E.
0010  00 34 00 03 00 00 40 06 f7 08 c0 a8 01 66 c0 a8   .4....@......f..
0020  01 02 8c 4a 11 b4 d5 af 04 02 b6 96 d2 06 80 10   ...J............
0030  48 d6 8d 14 00 00 01 01 08 0a 07 3f 5e d8 00 40   H..........?^..@
0040  b6 74                                             .t

No.     Time        Source                Destination           Protocol Info
     92 2.695170    192.168.1.5           192.168.1.102         ICMP     Redirect (Redirect for host)

Frame 92 (94 bytes on wire, 94 bytes captured)
    Arrival Time: May 28, 2010 20:47:55.201896000
    [Time delta from previous captured frame: 0.000030000 seconds]
    [Time delta from previous displayed frame: 0.000030000 seconds]
    [Time since reference or first frame: 2.695170000 seconds]
    Frame Number: 92
    Frame Length: 94 bytes
    Capture Length: 94 bytes
    [Frame is marked: False]
    [Protocols in frame: eth:ip:icmp:ip:tcp]
    [Coloring Rule Name: ICMP errors]
    [Coloring Rule String: icmp.type eq 3 || icmp.type eq 4 || icmp.type eq 5 || icmp.type eq 11]
Ethernet II, Src: Cisco-Li_76:1b:c6 (00:25:9c:76:1b:c6), Dst: Motorola_87:62:49 (00:23:ed:87:62:49)
    Destination: Motorola_87:62:49 (00:23:ed:87:62:49)
        Address: Motorola_87:62:49 (00:23:ed:87:62:49)
        .... ...0 .... .... .... .... = IG bit: Individual address (unicast)
        .... ..0. .... .... .... .... = LG bit: Globally unique address (factory default)
    Source: Cisco-Li_76:1b:c6 (00:25:9c:76:1b:c6)
        Address: Cisco-Li_76:1b:c6 (00:25:9c:76:1b:c6)
        .... ...0 .... .... .... .... = IG bit: Individual address (unicast)
        .... ..0. .... .... .... .... = LG bit: Globally unique address (factory default)
    Type: IP (0x0800)
Internet Protocol, Src: 192.168.1.5 (192.168.1.5), Dst: 192.168.1.102 (192.168.1.102)
    Version: 4
    Header length: 20 bytes
    Differentiated Services Field: 0xc0 (DSCP 0x30: Class Selector 6; ECN: 0x00)
        1100 00.. = Differentiated Services Codepoint: Class Selector 6 (0x30)
        .... ..0. = ECN-Capable Transport (ECT): 0
        .... ...0 = ECN-CE: 0
    Total Length: 80
    Identification: 0xa6c3 (42691)
    Flags: 0x00
        0.. = Reserved bit: Not Set
        .0. = Don't fragment: Not Set
        ..0 = More fragments: Not Set
    Fragment offset: 0
    Time to live: 64
    Protocol: ICMP (0x01)
    Header checksum: 0x4f6e [correct]
        [Good: True]
        [Bad : False]
    Source: 192.168.1.5 (192.168.1.5)
    Destination: 192.168.1.102 (192.168.1.102)
Internet Control Message Protocol
    Type: 5 (Redirect)
    Code: 1 (Redirect for host)
    Checksum: 0xbd33 [correct]
    Gateway address: 192.168.1.2 (192.168.1.2)
    Internet Protocol, Src: 192.168.1.102 (192.168.1.102), Dst: 192.168.1.2 (192.168.1.2)
        Version: 4
        Header length: 20 bytes
        Differentiated Services Field: 0x00 (DSCP 0x00: Default; ECN: 0x00)
            0000 00.. = Differentiated Services Codepoint: Default (0x00)
            .... ..0. = ECN-Capable Transport (ECT): 0
            .... ...0 = ECN-CE: 0
        Total Length: 52
        Identification: 0x0003 (3)
        Flags: 0x00
            0.. = Reserved bit: Not Set
            .0. = Don't fragment: Not Set
            ..0 = More fragments: Not Set
        Fragment offset: 0
        Time to live: 63
        Protocol: TCP (0x06)
        Header checksum: 0xf808 [correct]
            [Good: True]
            [Bad : False]
        Source: 192.168.1.102 (192.168.1.102)
        Destination: 192.168.1.2 (192.168.1.2)
    Transmission Control Protocol, Src Port: 35914 (35914), Dst Port: 4532 (4532), Seq: 3585016834, Ack: 3063337478
        Source port: 35914 (35914)
        Destination port: 4532 (4532)
        Sequence number: 3585016834
        [Stream index: 32]
        Sequence number: 3585016834    (relative sequence number)
        Acknowledgement number: 3063337478    (relative ack number)
        Header length: 32 bytes
        Flags: 0x10 (ACK)
            0... .... = Congestion Window Reduced (CWR): Not set
            .0.. .... = ECN-Echo: Not set
            ..0. .... = Urgent: Not set
            ...1 .... = Acknowledgement: Set
            .... 0... = Push: Not set
            .... .0.. = Reset: Not set
            .... ..0. = Syn: Not set
            .... ...0 = Fin: Not set
        Window size: 18646
        Checksum: 0x8d14 [validation disabled]
            [Good Checksum: False]
            [Bad Checksum: False]
        Options: (12 bytes)
            NOP
            NOP
            Timestamps: TSval 121593560, TSecr 4241012

0000  00 23 ed 87 62 49 00 25 9c 76 1b c6 08 00 45 c0   .#..bI.%.v....E.
0010  00 50 a6 c3 00 00 40 01 4f 6e c0 a8 01 05 c0 a8   .P....@.On......
0020  01 66 05 01 bd 33 c0 a8 01 02 45 00 00 34 00 03   .f...3....E..4..
0030  00 00 3f 06 f8 08 c0 a8 01 66 c0 a8 01 02 8c 4a   ..?......f.....J
0040  11 b4 d5 af 04 02 b6 96 d2 06 80 10 48 d6 8d 14   ............H...
0050  00 00 01 01 08 0a 07 3f 5e d8 00 40 b6 74         .......?^..@.t

No.     Time        Source                Destination           Protocol Info
     93 2.695192    192.168.1.102         192.168.1.2           TCP      [TCP Dup ACK 91#1] 35914 > 4532 [ACK] Seq=1 Ack=179 Win=18646 Len=0 TSV=121593560 TSER=4241012

Frame 93 (66 bytes on wire, 66 bytes captured)
    Arrival Time: May 28, 2010 20:47:55.201918000
    [Time delta from previous captured frame: 0.000022000 seconds]
    [Time delta from previous displayed frame: 0.000022000 seconds]
    [Time since reference or first frame: 2.695192000 seconds]
    Frame Number: 93
    Frame Length: 66 bytes
    Capture Length: 66 bytes
    [Frame is marked: False]
    [Protocols in frame: eth:ip:tcp]
    [Coloring Rule Name: Bad TCP]
    [Coloring Rule String: tcp.analysis.flags]
Ethernet II, Src: Cisco-Li_76:1b:c6 (00:25:9c:76:1b:c6), Dst: Motorola_53:5c:b7 (00:26:ba:53:5c:b7)
    Destination: Motorola_53:5c:b7 (00:26:ba:53:5c:b7)
        Address: Motorola_53:5c:b7 (00:26:ba:53:5c:b7)
        .... ...0 .... .... .... .... = IG bit: Individual address (unicast)
        .... ..0. .... .... .... .... = LG bit: Globally unique address (factory default)
    Source: Cisco-Li_76:1b:c6 (00:25:9c:76:1b:c6)
        Address: Cisco-Li_76:1b:c6 (00:25:9c:76:1b:c6)
        .... ...0 .... .... .... .... = IG bit: Individual address (unicast)
        .... ..0. .... .... .... .... = LG bit: Globally unique address (factory default)
    Type: IP (0x0800)
Internet Protocol, Src: 192.168.1.102 (192.168.1.102), Dst: 192.168.1.2 (192.168.1.2)
    Version: 4
    Header length: 20 bytes
    Differentiated Services Field: 0x00 (DSCP 0x00: Default; ECN: 0x00)
        0000 00.. = Differentiated Services Codepoint: Default (0x00)
        .... ..0. = ECN-Capable Transport (ECT): 0
        .... ...0 = ECN-CE: 0
    Total Length: 52
    Identification: 0x0003 (3)
    Flags: 0x00
        0.. = Reserved bit: Not Set
        .0. = Don't fragment: Not Set
        ..0 = More fragments: Not Set
    Fragment offset: 0
    Time to live: 63
    Protocol: TCP (0x06)
    Header checksum: 0xf808 [correct]
        [Good: True]
        [Bad : False]
    Source: 192.168.1.102 (192.168.1.102)
    Destination: 192.168.1.2 (192.168.1.2)
Transmission Control Protocol, Src Port: 35914 (35914), Dst Port: 4532 (4532), Seq: 1, Ack: 179, Len: 0
    Source port: 35914 (35914)
    Destination port: 4532 (4532)
    [Stream index: 32]
    Sequence number: 1    (relative sequence number)
    Acknowledgement number: 179    (relative ack number)
    Header length: 32 bytes
    Flags: 0x10 (ACK)
        0... .... = Congestion Window Reduced (CWR): Not set
        .0.. .... = ECN-Echo: Not set
        ..0. .... = Urgent: Not set
        ...1 .... = Acknowledgement: Set
        .... 0... = Push: Not set
        .... .0.. = Reset: Not set
        .... ..0. = Syn: Not set
        .... ...0 = Fin: Not set
    Window size: 18646
    Checksum: 0x8d14 [validation disabled]
        [Good Checksum: False]
        [Bad Checksum: False]
    Options: (12 bytes)
        NOP
        NOP
        Timestamps: TSval 121593560, TSecr 4241012
    [SEQ/ACK analysis]
        [TCP Analysis Flags]
            [This is a TCP duplicate ack]
        [Duplicate ACK #: 1]
        [Duplicate to the ACK in frame: 91]
            [Expert Info (Note/Sequence): Duplicate ACK (#1)]
                [Message: Duplicate ACK (#1)]
                [Severity level: Note]
                [Group: Sequence]

0000  00 26 ba 53 5c b7 00 25 9c 76 1b c6 08 00 45 00   .&.S\..%.v....E.
0010  00 34 00 03 00 00 3f 06 f8 08 c0 a8 01 66 c0 a8   .4....?......f..
0020  01 02 8c 4a 11 b4 d5 af 04 02 b6 96 d2 06 80 10   ...J............
0030  48 d6 8d 14 00 00 01 01 08 0a 07 3f 5e d8 00 40   H..........?^..@
0040  b6 74                                             .t

No.     Time        Source                Destination           Protocol Info
     94 2.776130    192.168.1.102         192.168.1.2           TCP      35914 > 4532 [PSH, ACK] Seq=1 Ack=179 Win=18646 Len=70 TSV=121593640 TSER=4241012

Frame 94 (136 bytes on wire, 136 bytes captured)
    Arrival Time: May 28, 2010 20:47:55.282856000
    [Time delta from previous captured frame: 0.080938000 seconds]
    [Time delta from previous displayed frame: 0.080938000 seconds]
